:0400000007EF00F016
:0A0008005A82D7ED18F014EF19F03A
:1008000000C60880084C08090809024300020100DC
:10081000C032090400000102020100052400100199
:100820000424020205240600010524010001070535
:10083000810308000209040100020A000000070504
:100840000202400000070582024000003403540009
:100850005200410049004E002000530049004D0065
:1008600055004C00410054004F005200200046004B
:1008700077005600650072002E0031002E00300017
:10088000340349004E005300590053002000440037
:10089000690067006900740061006C00200042007C
:1008A00061006E00670061006C006F0072006500FF
:1008B0002E0020001201000202000008D8040A00E5
:0B08C000000101020001040309040014
:1008CC00040EE8CF1CF7000EE8CF1DF739C7E8FF80
:1008DC00010AD8A4DFD03AC7E8FF010AD8B40ED079
:1008EC003AC7E8FF020AD8B409D0050EE8CF1CF7C6
:1008FC00000EE8CF1DF7010EE8CF24F727EE3BF0F2
:10090C00030EDB5010E1020EDB500DE12D0EDE5C10
:10091C00010EDE58D8B084D027EE3BF0DE50DE104E
:10092C00DE10DE10D8B47CD027EE3BF0030EDB508B
:10093C0025E1020EDB5022E1010EDB501FE10B0E14
:10094C00DE5CD8B01BD027EE3BF0FF0EDE2400019E
:10095C00F06FFF0EDE200001F16FFF0EDE200001B4
:10096C00F26FFF0EDE200001F36FF0C03BF7F1C019
:10097C003CF7F2C03DF7F3C03EF764D03BC7E3F061
:10098C003CC7E4F03DC7E5F03EC7E6F00A0E0001B7
:10099C00E76F000EE86F000EE96F000EEA6F1AECBD
:1009AC0014F00001E3C03BF70001E4C03CF7000188
:1009BC00E5C03DF70001E6C03EF7080E3BC7F0F07E
:1009CC003CC7F1F03DC7F2F03EC7F3F00001F02553
:1009DC000001F46F000E0001F1210001F56F000E13
:1009EC000001F2210001F66F000E0001F32100015D
:1009FC00F76FF4C03BF7F5C03CF7F6C03DF7F7C016
:100A0C003EF727EE3BF0030EDB500AE1020EDB5003
:100A1C0007E1010EDB5004E1270EDE5CD8A012D0FA
:100A2C00050EE8CF1CF7000EE8CF1DF7010EE8CF3E
:100A3C0025F7000EE8CF26F7000EE8CF27F7000EBB
:100A4C00E8CF28F727EE3FF0030EDB5010E1020E43
:100A5C00DB500DE1DE28FF0EDE58D8B008D027EEB3
:100A6C003FF0DE50DE10DE10DE10D8A459D0050E9B
:100A7C00E8CF1CF7000EE8CF1DF7010EE8CF29F7E1
:100A8C00000EE8CF2AF7000EE8CF2BF7000EE8CFC8
:100A9C002CF746D039C7E8FF020AD8A438D03BC798
:100AAC00F8F03CC7F9F03DC7FAF03EC7FBF0010E79
:100ABC000001F86509D0050EE8CF1CF7000EE8CF51
:100ACC001DF7010E0001F86F010E0001F96509D048
:100ADC00050EE8CF1CF7000EE8CF1DF7010E000144
:100AEC00F96F27EE1CF0050EDE18DE10D8A418D016
:100AFC00000E0001FA6F000E0001FB6FF8C025F725
:100B0C00F9C026F7FAC027F7FBC028F709D0050E65
:100B1C00E8CF1CF7000EE8CF1DF7010EE8CF23F746
:100B2C0027EE1CF0040EDE18DE10D8A4120039C714
:100B3C00E8FF010AD8A456D043C7E8FF010AD8B48D
:100B4C0017D040D004EC0BF012005BEC0AF0120052
:100B5C00B2EC09F0120009EC09F01200050EE8CF16
:100B6C001CF7000EE8CF1DF7010EE8CF22F712009C
:100B7C0027EE38F0DF50010AD8B4E4D7030AD8B412
:100B8C00E4D7010AD8B4E4D7070AD8B4E4D7E6D737
:100B9C00000E00019D6F1200000E00018C6F120000
:100BAC00000E00017B6F1200000E00016A6F120034
:100BBC00050EE8CF1CF7000EE8CF1DF7010EE8CFAD
:100BCC0022F7120027EE38F0DF50010AD8B4E0D734
:100BDC00030AD8B4E1D7010AD8B4E2D7070AD8B4CB
:100BEC00E3D7E6D739C7E8FF020AD8A4120042D0EF
:100BFC000001F8B102D08C9001D08C800001F8B1CA
:100C0C0002D08C9201D08C820001F9B102D08C946C
:100C1C0001D08C840001F9B102D08C9601D08C8665
:100C2C00000E00019D6F12000001F8B102D08C98EB
:100C3C0001D08C880001F8B102D08C9A01D08C8A3A
:100C4C000001F9B102D08C9C01D08C8C0001F9B15F
:100C5C0002D08C9E01D08C8E000E00019D6F120074
:100C6C00050EE8CF1CF7000EE8CF1DF7010EE8CFFC
:100C7C0022F7120027EE38F0DF50010AD8B4B8D7AB
:100C8C00030AD8B4D1D7ECD704013205D8A410D0BC
:100C9C00040130511F0B0009D8A40AD00C8E030E8E
:100CAC0004013119D8A402D0010E01D0000E266E19
:100CBC0004013251D8A41200040130511F0B020A56
:100CCC00D8A41200040134510F0B0009D8B412003F
:100CDC00040134510F0B426E030E42601200200EC1
:100CEC002918D8A412000C8E040134BF1BD00401A7
:100CFC0034510F0B426E4250020DB40EF324D96ED8
:100D0C00000EF420DA6EDECF46F0DDCF47F00401A2
:100D1C0034510F0B426E4250010DC40EF324D96EA8
:100D2C00000E1AD0040134510F0B426E4250020DCA
:100D3C000F0EF324D96E000EF420DA6EDECF46F0DF
:100D4C00DDCF47F0040134510F0B426E4250010DC0
:100D5C00150EF324D96E000EF420DA6EDF50456EBA
:100D6C0045B002D0469401D04684040134BF0BD068
:100D7C00040134510F0B426E4250020DB40EF32499
:100D8C00D96E000E0AD0040134510F0B426E425042
:100D9C00020D0F0EF324D96E000EF420DA6E46C04D
:100DAC00DEFF47C0DDFF030E04013119D8A431D09A
:100DBC0046C0D9FF47C0DAFFDFAE1ED0040134BFF6
:100DCC000ED0040134510F0B426E4250010DC40E73
:100DDC00F324D96E000EF420DA6E00010CD004015D
:100DEC0034510F0B426E4250010D150EF324D96E87
:100DFC00000EF420DA6EDF8246C0D9FF47C0DAFF5E
:100E0C00000EDB8446C0D9FF47C0DAFF000EDB8E34
:100E1C001200040E461A46C0D9FF47C0DAFFDFAEF7
:100E2C001BD046C0D9FF47C0DAFF7F0EDF1646C085
:100E3C00D9FF47C0DAFF000EDB8C000E3B6E050EAF
:100E4C003A6E46C03CF047C03DF0000E3F6E020EBD
:100E5C003E6E4DEC19F006D046C0D9FF47C0DAFF04
:100E6C00000EDB8C040E461A45B206D046C0D9FFE4
:100E7C0047C0DAFFDFAE33D0040134BF0ED004011B
:100E8C0034510F0B426E4250010DC40EF324D96E37
:100E9C00000EF420DA6E00010CD0040134510F0B5B
:100EAC00426E4250010D150EF324D96E000EF42043
:100EBC00DA6EDF9246C0D9FF47C0DAFF3B0EDF1671
:100ECC00000E3B6E050E3A6E46C03CF047C03DF03E
:100EDC00000E3F6E020E3E6E4DEC19F006D046C071
:100EEC00D9FF47C0DAFF3B0EDF16040134510F0B5C
:100EFC00426E4250010D700EF324436E0F0EF4201F
:100F0C00446E43C0D9FF44C0DAFFFE0EDF16120058
:100F1C00A09A0001C7510001C811D8B413D0C7C0A2
:100F2C00D9FFC8C0DAFF0001DFAE04D00001EA6BC4
:100F3C00EA2B02D00001EA6B0001EA510001EB6FD1
:100F4C00EC6B05D0000E0001EC6F000EEB6F000196
:100F5C00EB510001EC11D8B402D0A08A1200030EA0
:100F6C000001D319D8A403D0000E0001D36F0001E7
:100F7C00D351D8A402D0A08A1200020E0001D319BA
:100F8C00D8A417D0010E0001E36F000E0001E46F2E
:100F9C00000E0001E56F000E0001E66F020E1CEC66
:100FAC0012F0E3C0C7F0E4C0C8F0030E0001D36F29
:100FBC0071D00001D305D8A46DD0400E0001CF65CF
:100FCC0004D0400E0001EE6F02D0CFC0EEF0000155
:100FDC00EE5100080001CF250001CF6F000E00017B
:100FEC00BE6F050E0001BF6FEEC0EDF00001CE51DB
:100FFC00D8B413D02AD0C1C0D9FFC2C0DAFFBEC04A
:10100C00E1FFBFC0E2FFDFCFE7FF0001BE4BBF2B0C
:10101C000001C14BC22B0001ED070001ED51000195
:10102C00D8B418D0E8D7C1C0D9FFC2C0DAFFBEC04F
:10103C00E1FFBFC0E2FFDFCFE7FF0001BE4BBF2BDC
:10104C000001C14BC22B0001ED070001ED51000165
:10105C00D8A4E9D70001CF51D8A40AD0400E000182
:10106C00EE19D8A402D0020E01D0030E0001D36FEA
:10107C00010E0001E36F000E0001E46F050E00018C
:10108C00E56FEEC0E6F0020E1CEC12F0E3C0C7F008
:10109C00E4C0C8F0A08A120000019D05D8A423D09A
:1010AC0000019B5100019C11D8B40AD0FF0E000125
:1010BC009B2500019B6FFF0E00019C2100019C6F82
:1010CC0000019B5100019C11D8A416D00001A25123
:1010DC000001A311D8A404D0000E00019D6F0CD008
:1010EC00BAEC17F009D039C7E8FF020AD8B404D01B
:1010FC008C908C928C948C9600018C05D8A423D067
:10110C0000018A5100018B11D8B40AD0FF0E0001E6
:10111C008A2500018A6FFF0E00018B2100018B6F65
:10112C0000018A5100018B11D8A416D000019151F5
:10113C0000019211D8A404D0000E00018C6F0CD0C9
:10114C006FEC17F009D039C7E8FF020AD8B404D005
:10115C008C988C9A8C9C8C9E00017B05D8A423D0F7
:10116C000001795100017A11D8B40AD0FF0E0001A8
:10117C0079250001796FFF0E00017A2100017A6F49
:10118C000001795100017A11D8A411D000018051CD
:10119C0000018111D8A404D0000E00017B6F07D090
:1011AC0024EC17F004D08A908A928A948A960001D3
:1011BC006A05D8A423D00001685100016911D8B484
:1011CC000AD0FF0E000168250001686FFF0E0001B8
:1011DC0069210001696F0001685100016911D8A4EF
:1011EC00120000016F5100017011D8A404D0000E40
:1011FC0000016A6F1200D9EC16F012008A988A9AD4
:10120C008B908B9212003FC76FF040C770F03AC7BB
:10121C006BF027EE3BF0DECFE3F0DDCFE4F0000126
:10122C00D890E337E4370001D890E337E437020E67
:10123C000001E327000EE423000E0001E325D96E24
:10124C00010E0001E421DA6EDECFE5F0DDCFE6F031
:10125C0027EE3BF0DECFE7F0DDCFE8F00001D890D1
:10126C00E737E8370001D890E737E837000E000180
:10127C00E725D96E010E0001E821DA6EDECFE9F028
:10128C00DDCFEAF00001E5510001E9250001606FB6
:10129C000001E6510001EA210001616F27EE3BF0ED
:1012AC00DECFE3F0DDCFE4F00001D890E337E43794
:1012BC000001D890E337E437000E0001E325D96E26
:1012CC00010E0001E421DA6EDECF62F0DDCF63F0B7
:1012DC0027EE3BF0DECFE3F0DDCFE4F00001D89059
:1012EC00E337E4370001D890E337E437020E00010E
:1012FC00E327000EE423000E0001E325D96E010E56
:10130C000001E421DA6EDECF64F0DDCF65F027EE6C
:10131C003BF0DECFE3F0DDCFE4F00001D890E33713
:10132C00E4370001D890E337E437000E0001E325E1
:10133C00D96E010E0001E421DA6EDECF66F0DDCF4E
:10134C0067F060C068F061C069F0000E00016E6F5C
:10135C00010E00016A6F12003FC780F040C781F098
:10136C003AC77CF027EE3BF0DECFE3F0DDCFE4F0C4
:10137C000001D890E337E4370001D890E337E43725
:10138C00020E0001E327000EE423000E0001E3250A
:10139C00D96E010E0001E421DA6EDECFE5F0DDCF6F
:1013AC00E6F027EE3BF0DECFE7F0DDCFE8F0000112
:1013BC00D890E737E8370001D890E737E837000EC8
:1013CC000001E725D96E010E0001E821DA6EDECFAF
:1013DC00E9F0DDCFEAF00001E5510001E92500015B
:1013EC00716F0001E6510001EA210001726F27EED6
:1013FC003BF0DECFE3F0DDCFE4F00001D890E33733
:10140C00E4370001D890E337E437000E0001E32500
:10141C00D96E010E0001E421DA6EDECF73F0DDCF60
:10142C0074F027EE3BF0DECFE3F0DDCFE4F000010B
:10143C00D890E337E4370001D890E337E437020E55
:10144C000001E327000EE423000E0001E325D96E12
:10145C00010E0001E421DA6EDECF75F0DDCF76F0FF
:10146C0027EE3BF0DECFE3F0DDCFE4F00001D890C7
:10147C00E337E4370001D890E337E437000E00017E
:10148C00E325D96E010E0001E421DA6EDECF77F090
:10149C00DDCF78F071C079F072C07AF0000E0001E7
:1014AC007F6F010E00017B6F12003FC791F040C7A8
:1014BC0092F03AC78DF027EE3BF0DECFE3F0DDCFB4
:1014CC00E4F00001D890E337E4370001D890E3371B
:1014DC00E437020E0001E327000EE423000E0001A6
:1014EC00E325D96E010E0001E421DA6EDECFE5F0C2
:1014FC00DDCFE6F027EE3BF0DECFE7F0DDCFE8F016
:10150C000001D890E737E8370001D890E737E83783
:10151C00000E0001E725D96E010E0001E821DA6EFC
:10152C00DECFE9F0DDCFEAF00001E5510001E9255D
:10153C000001826F0001E6510001EA210001836F76
:10154C0027EE3BF0DECFE3F0DDCFE4F00001D890E6
:10155C00E337E4370001D890E337E437000E00019D
:10156C00E325D96E010E0001E421DA6EDECF84F0A2
:10157C00DDCF85F027EE3BF0DECFE3F0DDCFE4F0FE
:10158C000001D890E337E4370001D890E337E43713
:10159C00020E0001E327000EE423000E0001E325F8
:1015AC00D96E010E0001E421DA6EDECF86F0DDCFBC
:1015BC0087F027EE3BF0DECFE3F0DDCFE4F0000167
:1015CC00D890E337E4370001D890E337E437000EC6
:1015DC000001E325D96E010E0001E421DA6EDECFA5
:1015EC0088F0DDCF89F082C08AF083C08BF0000ECA
:1015FC000001906F010E00018C6F12003FC7A2F02A
:10160C0040C7A3F03AC79EF027EE3BF0DECFE3F0E5
:10161C00DDCFE4F00001D890E337E4370001D89037
:10162C00E337E437020E0001E327000EE423000E3B
:10163C000001E325D96E010E0001E421DA6EDECF44
:10164C00E5F0DDCFE6F027EE3BF0DECFE7F0DDCFC7
:10165C00E8F00001D890E737E8370001D890E73779
:10166C00E837000E0001E725D96E010E0001E821D4
:10167C00DA6EDECFE9F0DDCFEAF00001E5510001D2
:10168C00E9250001936F0001E6510001EA210001F8
:10169C00946F27EE3BF0DECFE3F0DDCFE4F00001FA
:1016AC00D890E337E4370001D890E337E437000EE5
:1016BC000001E325D96E010E0001E421DA6EDECFC4
:1016CC0095F0DDCF96F027EE3BF0DECFE3F0DDCFEB
:1016DC00E4F00001D890E337E4370001D890E33709
:1016EC00E437020E0001E327000EE423000E000194
:1016FC00E325D96E010E0001E421DA6EDECF97F0FE
:10170C00DDCF98F027EE3BF0DECFE3F0DDCFE4F059
:10171C000001D890E337E4370001D890E337E43781
:10172C00000E0001E325D96E010E0001E421DA6EF2
:10173C00DECF99F0DDCF9AF093C09BF094C09CF073
:10174C00000E0001A16F010E00019D6F1200A09A06
:10175C00000E6A6E000E686E000E706E710E000147
:10176C00E36F0F0E0001E46F000E0001E66F000E38
:10177C00E56F000E0001E86F020EE76FA4EC1BF0A2
:10178C00160E6F6E9F0E6B6E7B0E696E000E000157
:10179C00EB6F0B0E0001EB6501D010D00001EB518B
:1017AC00040D000EF324D96E040EF420DA6EDE6AFA
:1017BC00DE6ADE6ADD6A0001EB2BEBD76D8C000E66
:1017CC006E6E6D986D9C09D06896000E0C6E000EB6
:1017DC00046E000E066E000E056E68B6F5D7010E8F
:1017EC00216E010E206E000E1F6E000E1E6E000E7E
:1017FC000001D16F000E0001EB6F020E0001EB65D2
:10180C0001D033D00001EB51020D0F0EF324D96E31
:10181C00000EF420DA6E000EDE6E000EDD6E00019E
:10182C00EB51020DB40EF324D96E000EF420DA6ED7
:10183C00000EDE6E000EDD6E0001EB51010D150E7B
:10184C00F324D96E000EF420DA6E000EDF6E000168
:10185C00EB51010DC40EF324D96E000EF420DA6E98
:10186C00000EDF6E0001EB2BC8D7080E0F6E040EB6
:10187C00106E160E706E040E0401036F300E026FA4
:10188C00080E0401016F040E0401006F0401008FA7
:10189C00000E2D6E000E296E1200000E00019D6FC1
:1018AC00000E00018C6F000E00017B6F000E00011A
:1018BC006A6F000E00019C6F000E9B6F000E000102
:1018CC008B6F000E8A6F000E00017A6F000E796F1D
:1018DC00000E0001696F000E686F000EE8CF18F75C
:1018EC00000EE8CF17F7000EE8CF12F7000EE8CF86
:1018FC0013F7000EE8CF14F7000EE8CF15F7000E23
:10190C00E8CF16F7000E0001E46F000EE36F000144
:10191C00E45113E1C80E0001E35DD8B00ED0800E87
:10192C000001E325D96E050E0001E421DA6E000EEC
:10193C00DF6E0001E34BE42BEAD7000E0001E46FED
:10194C00000EE36F0001E45113E1C80E0001E35DEA
:10195C00D8B00ED0480E0001E325D96E060E00015A
:10196C00E421DA6E000EDF6E0001E34BE42BEAD7C4
:10197C00000E0001E46F000EE36F0001E45113E16F
:10198C00160E0001E35DD8B00ED02F0E0001E3253A
:10199C00D96E070E0001E421DA6E000EDF6E000135
:1019AC00E34BE42BEAD7000E0001E46F000EE36F6B
:1019BC000001E45113E1160E0001E35DD8B01200F2
:1019CC00190E0001E325D96E070E0001E421DA6E31
:1019DC00000EDF6E0001E34BE42BEAD71200290462
:1019EC00D8B46DBA06D0000E686E69806988020E94
:1019FC00296E68B469A403D06894D6EC1BF06DA270
:101A0C0002D0A19A120068B069A006D08DEC0DF03E
:101A1C00A08A040E296E689068B869A803D01CECE3
:101A2C001CF0689868AC18D069AC0ED0000E3B6EF8
:101A3C00730E3A6E000E3C6E000E3D6E000E3F6E45
:101A4C00010E3E6E4DEC19F0689C2350D8A4230671
:101A5C002350D8B4B9EC13F068BA69AA02D04BEC95
:101A6C001BF068B269A20FD07F0E3B6E3A68000E75
:101A7C003C6E000E3D6E000E3F6E010E3E6E4DEC48
:101A8C0019F0000E6A6E040E296002D0A19A1200A1
:101A9C0069A63BD0000E4B6E030E4B6401D035D0C3
:101AAC0068A633D06CCF2CF02C30E832E8320F0B18
:101ABC00256E68962CB40AD02550010DC40EF32463
:101ACC00D96E000EF420DA6E000108D02550010DFD
:101ADC00150EF324D96E000EF420DA6EDF7025504B
:101AEC00D8A403D088EC12F00ED0000E3B6E720E10
:101AFC003A6E2C0E3C6E000E3D6E000E3F6E000ECC
:101B0C003E6E4DEC19F04B2AC7D7A19A1200A09A41
:101B1C00000E6A6E000E686E000E706E710E2E6EE8
:101B2C000F0E2F6E000E316E000E306E000E336EE7
:101B3C00020E326E06EC1CF0160E6F6E9F0E6B6E64
:101B4C007B0E696E000E366E0B0E366401D00ED015
:101B5C003650040D000EF324D96E040EF420DA6E08
:101B6C00DE6ADE6ADE6ADD6A362AEED76D8C000E1E
:101B7C006E6E6D986D9C09D06896000E0C6E000E02
:101B8C00046E000E066E000E056E68B6F5D7010EDB
:101B9C00216E010E206E000E1F6E000E1E6E000ECA
:101BAC000001D16F000E366E020E366401D02ED0BD
:101BBC003650020D0F0EF324D96E000EF420DA6E9F
:101BCC00000EDE6E000EDD6E3650020DB40EF324E8
:101BDC00D96E000EF420DA6E000EDE6E000EDD6E95
:101BEC003650010D150EF324D96E000EF420DA6E6A
:101BFC00000EDF6E3650010DC40EF324D96E000EAC
:101C0C00F420DA6E000EDF6E362ACED7080E0F6E79
:101C1C00040E106E160E706E040E0401036F300E5F
:101C2C00026F080E0401016F040E0401006F040121
:101C3C00008F000E2D6E000E296E12000001D35184
:101C4C00D8A48ED0AE0E0001EA6F010E0001EB6F2E
:101C5C00400E0001EC6FCCEC10F00001F46F000EA4
:101C6C000001F56F3CD00001F551010DAE0EF324CF
:101C7C00D96E010EF420DA6E17EE15F0E6CFF0F007
:101C8C00E5CFF1F0480E0001F025E16E060E0001E3
:101C9C00F121E26EDFCFE7FF27EE15F0DECFF0F09B
:101CAC00DDCFF1F0010E0001F027000EF123F0C0A2
:101CBC0015F7F1C016F727EE15F0010EDB5004E115
:101CCC00C80EDE5CD8A006D0000EE8CF15F7000ECB
:101CDC00E8CF16F7010EE8CF18F70001F52B00013D
:101CEC00F4510001F55DD8A0BED712C7E8FF010A78
:101CFC00D8A436D0000EE8CF12F7000E0001F56F15
:101D0C0016D00001F551010D800EF324D96E050E8D
:101D1C00F420DA6E0001F551010D000EF324E16E92
:101D2C00020EF420E26EDFCFE7FF0001F52B27EE69
:101D3C0010F00001F5510001F26FF36BDE50000161
:101D4C00F25DDE500001F359D8A0DBD7000E000184
:101D5C00E36F020E0001E46F10C7E5F045EC1CF0D8
:101D6C008EEC07F01200800E04013019D8A412007A
:101D7C00C00E0C6E7CD0B40E096E080E0A6E000EEE
:101D8C000E6E120E0D6E120004013251D8A43ED00C
:101D9C0004013251020D070EF324F66E080EF420E6
:101DAC00F76E0900F5CF09F00A00F5CF0AF0020E24
:101DBC0009242E6E000E0A202F6E2EC0F6FF2FC0A7
:101DCC00F7FFF86A070EF76403D00800F55005D04A
:101DDC00F6CFE1FFF7CFE2FFE7500D6E030E0924BB
:101DEC002E6E000E0A202F6E2EC0F6FF2FC0F7FFAE
:101DFC00F86A070EF76403D00800F55005D0F6CF4B
:101E0C00E1FFF7CFE2FFE7500E6E1200000E0C6EF2
:101E1C001200030E0401326124D004013251020D70
:101E2C00010EF324F66E080EF420F76E0900F5CFC0
:101E3C0009F00A00F5CF0AF009C0F6FF0AC0F7FF57
:101E4C00F86A070EF76403D00800F55005D0F6CFFA
:101E5C00E1FFF7CFE2FFE7502E6E2E500D6E0E6AAB
:101E6C001200000E0C6E1200000E0C6E120004011B
:101E7C003351010AD8B47FD7030AD8B485D7010AE5
:101E8C00D8B4C7D7F1D720EE01F01A50D9261B5081
:101E9C00DA22DF502F6E2F50055C000E0658D8A0AA
:101EAC0005C02FF02F50055E000E065A000E2E6E48
:101EBC0011D02E50010D380EF324D96E040EF420DF
:101ECC00DA6E01C0E1FF02C0E2FFDFCFE7FF014A9B
:101EDC00022A2E2A2F502E5CD8A0EBD705500610C4
:101EEC00D8B432D020EE01F01850D9261950DA228D
:101EFC00080EDF6E20EE02F01850D9261950DA22A7
:101F0C00380EDE6E040EDD6E1AC0D9FF1BC0DAFF70
:101F1C00DFBC0DD018C0D9FF19C0DAFF480EDF6E38
:101F2C0018C0D9FF19C0DAFF000EDB8E120018C0E2
:101F3C00D9FF19C0DAFF080EDF6E18C0D9FF19C01F
:101F4C00DAFF000EDB8E120020EE01F01850D926BD
:101F5C001950DA22080EDF6E20EE02F01850D92646
:101F6C001950DA22300EDE6E040EDD6E18C0D9FF69
:101F7C0019C0DAFF040EDF6E18C0D9FF19C0DAFFE2
:101F8C00000EDB8E049E2250D8A41200B9EC13F084
:101F9C001200000E0001F16F000EF06F0001F15104
:101FAC0006E1C80E0001F05DD8B0120001D012009D
:101FBC00480E0001F025D96E060E0001F121DA6EF3
:101FCC005B0EDE18D8A462D0F0C0E3F0F1C0E4F0F0
:101FDC00000E0001E66F150EE56FFEEC1AF0E3C083
:101FEC00ECF0E4C0EDF0480E0001EC25D96E060EC5
:101FFC000001ED21DA6E5D0EDE18D8A447D0000E7C
:10200C000001EF6F000EEE6F0001EF5128E1160E8C
:10201C000001EE5DD8B023D0F0C0E3F0F1C0E4F0E5
:10202C00EEC0E5F0EFC0E6F0FEEC1AF0480E000151
:10203C00E325D96E060E0001E421DA6E2F0E0001A5
:10204C00EE25E16E070E0001EF21E26EDFCFE7FF18
:10205C000001EE4BEF2B0001EF5101E1D8D7010E3F
:10206C00E8CF17F7480E0001F025D96E060E0001D7
:10207C00F121DA6E000EDF6E480E0001EC25D96EF0
:10208C00060E0001ED21DA6E000EDF6E0001F04B42
:10209C00F12B0001F15101E184D712006D980CBEB7
:1020AC0038D004AE0BD0020E276E1E50D8B48DEC77
:1020BC0016F0000E206E000E216E120020EE01F0C4
:1020CC001850D9261950DA22080EDF6E20EE02F0D5
:1020DC001850D9261950DA22300EDE6E040EDD6E41
:1020EC0018C0D9FF19C0DAFF0C0EDF6E18C0D9FF6B
:1020FC0019C0DAFF000EDB8E0FC0D9FF10C0DAFF5B
:10210C00040EDF6E0FC0D9FF10C0DAFF000EDB8E9D
:10211C001200040130AF10D0010E276E1F50D8B43E
:10212C008DEC16F0000E206E000E216E2250D8A4FD
:10213C001200B9EC13F01200020E276E20EE01F023
:10214C001850D9261950DA22080EDF6E20EE02F054
:10215C001850D9261950DA22300EDE6E040EDD6EC0
:10216C0018C0D9FF19C0DAFF040EDF6E18C0D9FFF2
:10217C0019C0DAFF000EDB8E000E206E000E216EF1
:10218C002250D8A41200B9EC13F01200000E00017A
:10219C00D06F0001C9510001CA11D8B413D0C9C005
:1021AC00D9FFCAC0DAFF0001DFAE04D00001ED6B2D
:1021BC00ED2B02D00001ED6B0001ED510001EE6F33
:1021CC00EF6B05D0000E0001EF6F000EEE6F0001FB
:1021DC00EE510001EF11D8A44BD0000120EE01F01C
:1021EC00C951D926CA51DA220001EC51DE5CD8B0B3
:1021FC000AD0000120EE01F0C951D926CA51DA22C9
:10220C00DF500001EC6F000E0001D06F18D0000100
:10221C00D051010D400EF324D96E050EF420DA6E68
:10222C000001D051010DF3500001EA25E16EF4508C
:10223C000001EB21E26EDFCFE7FF0001D02B0001A4
:10224C00EC510001D05DD8A0E2D7000E0001E36F85
:10225C00400E0001E46F050E0001E56F400E000119
:10226C00E66F020E1CEC12F0E3C0C9F0E4C0CAF039
:10227C000001D05112000C8E710E2E6E0F0E2F6EAF
:10228C00000E316E000E306E000E336E020E326E8A
:10229C0006EC1CF0000E2E6E040E2F6E000E316E2E
:1022AC00000E306E000E336E300E326E06EC1CF0EB
:1022BC006D8C000E426E020E426401D016D042505C
:1022CC00010D150EF324D96E000EF420DA6E000EFB
:1022DC00DF6E4250010DC40EF324D96E000EF420B3
:1022EC00DA6E000EDF6E422AE6D72A0E2E6E000E34
:1022FC002F6E000E316E000E306E000E336E020E1D
:10230C00326E06EC1CF06D9C080E0F6E040E106EF7
:10231C00000E1A6E040E1B6E1AC018F01BC019F0BA
:10232C0032C42DF02D50D8A403D0100E296E1200FB
:10233C00000E3B6E010E3A6E2D0E3C6E000E3D6E85
:10234C00000E3F6E010E3E6E4DEC19F0200E296E04
:10235C00120004013039E832030B0009D8A4120032
:10236C0043D00C8E080E296E1200B9EC0EF0120040
:10237C0041EC11F012002D0E096E000E0A6E0C804D
:10238C00010E0D6E0C8E120038EC16F012004AEC99
:10239C0006F0120004013451010D2A0EF324096ECB
:1023AC00000EF4200A6E0C80010E0D6E0C8E1200C5
:1023BC000C8E04013451010D2A0EF324D96E000E3B
:1023CC00F420DA6E32C4DFFF1200000E3B6E020EF8
:1023DC003A6E000E3C6E000E3D6E000E3F6E000E0F
:1023EC003E6E4DEC19F0120004013151000AD8B4C4
:1023FC00CBD7010AD8B4CBD7020AD8B4C8D7060AAF
:10240C00D8B4AFD7030AD8B4B0D7010AD8B4DDD743
:10241C000F0AD8B4B0D7010AD8B4AAD7030AD8B4D3
:10242C00B9D7010AD8B4C4D7070A12000001E76F64
:10243C000001E3510001D8B408D00001E751020DAE
:10244C000F0EF324D96E000E07D00001E751020DD8
:10245C00B40EF324D96E000EF420DA6EDECFE8F061
:10246C00DDCFE9F00001E8510001E911D8A407D053
:10247C00000E0001E36F000E0001E46F120000017A
:10248C0020EE02F0E851D926E951DA22E4C0DEFF51
:10249C00E5C0DDFF000120EE01F0E851D926E9513D
:1024AC00DA22E6C0DFFFE8C0D9FFE9C0DAFF400E50
:1024BC00DF16E8C0D9FFE9C0DAFF000EDB86E8C002
:1024CC00D9FFE9C0DAFF000EDB8E0001E3510001F9
:1024DC00D8B408D00001E751020D0F0EF324D96EC9
:1024EC00000E07D00001E751020DB40EF324D96E93
:1024FC00000EF420DA6E040EDF1AE8C0E3F0E9C037
:10250C00E4F012002D0E236E2CC048F0FD0E481680
:10251C00D8A457D02CC048F0D89048323F0E48165B
:10252C004850040D000EF3241A6E040EF4201B6E9A
:10253C001AC018F01BC019F0040E181A1AC0D9FFD3
:10254C001BC0DAFFDF30E8320F0B0D0AD8A436D0EF
:10255C00000E4A6E070E4A6401D023D020EE02F022
:10256C001A50D9261B50DA22DECF48F0DDCF49F0C5
:10257C0048C0D9FF49C0DAFF4A50010D300EF32490
:10258C00E16E040EF420E26EDFCFE7FF20EE02F0E6
:10259C001A50D9261B50DA22DE2A000EDD224A2AD6
:1025AC00D9D720EE02F01A50D9261B50DA22300E61
:1025BC00DE6E040EDD6E96EC18F01200D0EC1AF004
:1025CC0012002C50FD0B040AD8A4120030EC15F0AC
:1025DC001200080E2E6E0E5010E1080E0D5CD8B0D5
:1025EC000CD00DC02EF02850D8A402D0010E04D06F
:1025FC002804D8A402D0020E286E2E500D5E000EB8
:10260C000E5A20EE01F00F50D9261050DA222EC0AF
:10261C00DFFF380E0001CB6F040E0001CC6F0CA055
:10262C001CD03AD009C0F6FF0AC0F7FFF86ACBC03D
:10263C00D9FFCCC0DAFF070EF76403D00800F550C1
:10264C0005D0F6CFE1FFF7CFE2FFE750DF6E094A86
:10265C000A2A0001CB4BCC2B2E062E50D8B41200DC
:10266C00E1D709C0F6FF0AC0F7FFF86ACBC0D9FF63
:10267C00CCC0DAFF070EF76403D00800F55005D084
:10268C00F6CFE1FFF7CFE2FFE750DF6E094A0A2AE7
:10269C000001CB4BCC2B2E062E50D8B41200E1D718
:1026AC005B0EE8CF19F70C0EE8CF20F7000EE8CF41
:1026BC0021F75D0EE8CF2EF7000E0001E36F00014D
:1026CC009DB103D00001E39102D00001E381000130
:1026DC008CB103D00001E39302D00001E38300012D
:1026EC007BB103D00001E39502D00001E38500012A
:1026FC006AB103D00001E39702D00001E38727EE13
:10270C0022F0E3C0DFFF000E0001E56F000EE46F66
:10271C000001E5511EE1160E0001E45DD8B019D0A0
:10272C00190E0001E425D96E070E0001E521DA6EC1
:10273C00800E0001E425E16E050E0001E521E26E3C
:10274C00DFCFE7FF0001E44BE52B0001E55101E190
:10275C00E2D7160EE8CF10F7000EE8CF11F7010EF6
:10276C00E8CF12F712002150D8A41200010E216EEE
:10277C002050D8A41200010E206E020E2718D8A4E7
:10278C0015D020EE01F00F50D9261050DA22000E91
:10279C00DF6E0FC0D9FF10C0DAFF480EDF6E0FC01E
:1027AC00D9FF10C0DAFF000EDB8E12002704D8A46C
:1027BC001200000E246E20EE01F01A50D9261B5088
:1027CC00DA22080EDF6E20EE02F01A50D9261B50CA
:1027DC00DA22300EDE6E040EDD6E1AC0D9FF1BC07D
:1027EC00DAFF040EDF6E1AC0D9FF1BC0DAFF000E31
:1027FC00DB8E010E246E20EE01F01850D9261950F4
:10280C00DA22080EDF6E20EE02F01850D92619508D
:10281C00DA22300EDE6E040EDD6E18C0D9FF19C040
:10282C00DAFF800EDF6E1200000E0001EB6F000E5F
:10283C00EC6F000EED6F000EEE6F0001E751000122
:10284C00E8110001E9110001EA11D8B442D0010EDF
:10285C000001EF6F08D00001D890E737E837E9376F
:10286C00EA370001EF2B0001EAAFF5D70001D89051
:10287C00EB37EC37ED37EE370001E7510001E35D44
:10288C000001E8510001E4590001E9510001E5594A
:10289C000001EA510001E659D8A012D00001E7511D
:1028AC000001E35F0001E8510001E45B0001E95124
:1028BC000001E55B0001EA510001E65B0001EB81E0
:1028CC000001D890EA33E933E833E7330001EF2F06
:1028DC00CDD7EBC0E3F0ECC0E4F0EDC0E5F0EEC01A
:1028EC00E6F01200326E2E50D8B407D03250020DE2
:1028FC000F0EF324D96E000E06D03250020DB40E1A
:10290C00F324D96E000EF420DA6EDECF33F0DDCF77
:10291C0034F033503410D8A405D0000E2E6E000EB7
:10292C002F6E120020EE02F03350D9263450DA22EA
:10293C002FC0DEFF30C0DDFF20EE01F03350D92672
:10294C003450DA2231C0DFFF33C0D9FF34C0DAFF94
:10295C00400EDF1633C0D9FF34C0DAFF000EDB8621
:10296C0033C0D9FF34C0DAFF000EDB8E2E50D8B442
:10297C0007D03250020D0F0EF324D96E000E06D084
:10298C003250020DB40EF324D96E000EF420DA6E20
:10299C00040EDF1A33C02EF034C02FF01200F2A454
:1029AC000ED0F294D59E000ED76E690ED66ED58ED3
:1029BC0052EC08F0000E0001B36F010EB26F8AECFE
:1029CC001BF00001B2050001B311D8A41200000ED7
:1029DC000001B36F000EB26F010E0001AE250001B5
:1029EC00AE6F000E0001AF210001AF6FE80E0001C9
:1029FC00AE5D030E0001AF59D8A016D0000E000139
:102A0C00AF6F000EAE6F04008DA202D0010E01D08C
:102A1C00000EFF0A0001FE6F0001FE478D50000101
:102A2C00FE19FD0BFE198D6EE80E0001B05D030E54
:102A3C000001B159D8A002D08D941200010E0001F2
:102A4C00B0250001B06F000E0001B1210001B16F83
:102A5C008D8412000FC0D9FF10C0DAFF000EDFBC4E
:102A6C00010E2F6E040E0F1A080E2918D8A40BD0C5
:102A7C00040132517F0B6E6E6E50D8B402D0100E22
:102A8C0001D0040E296E2704D8A43AD020EE02F00F
:102A9C000F50D9261050DA22380EDE6E040EDD6E81
:102AAC00EFEC12F0020E2818D8A40DD00FC0D9FFED
:102ABC0010C0DAFF040EDF6E0FC0D9FF10C0DAFFB2
:102ACC00000EDB8E12002F50D8A40DD00FC0D9FFF2
:102ADC0010C0DAFF480EDF6E0FC0D9FF10C0DAFF4E
:102AEC00000EDB8E12000FC0D9FF10C0DAFF080EEB
:102AFC00DF6E0FC0D9FF10C0DAFF000EDB8E1200A4
:102B0C0004BE049E000E276E1200E81CD007041AA7
:102B1C000807201740063C1478055811B004740EB1
:102B2C00E803900B2003AC085802C8059001E4029E
:102B3C00C8007C016400F0004600BE003200960024
:102B4C0028007D0023006E001E006900190057004C
:102B5C00170050001400470013004000100037000D
:102B6C000F0036000E0031000D002F000B002C0062
:102B7C000A002A000A002800090026000800240088
:102B8C0007002300070022000600200006001E009C
:102B9C0006001C0006001C0005001B0005001900A7
:102BAC00050018000500427574746F6E2070726514
:102BBC00737365642E0D0A00040130511F0BE80677
:102BCC00D8A4120004013039E832030BE806D8A46B
:102BDC00120004013451D8B433D004013405D8A404
:102BEC0012002ED0D40E096E000E0A6E000E0E6E60
:102BFC00080E0D6E0C800C8E1200D40E096E000E99
:102C0C000A6E0C8E120036C405F037C406F0DC0ECA
:102C1C00016E000E026E000E076E000E086E048E22
:102C2C001200DC0E096E000E0A6E000E0E6E070E00
:102C3C000D6EC10E0C6E120032C4CDF00C8E120053
:102C4C0004013151000AD8B4CDD7010AD8B4D5D774
:102C5C00210AD8B4D8D7010AD8B4E3D7030AD8A428
:102C6C001200EAD7000E0401386F000E0401396F10
:102C7C0038D00C8E2604D8A440D0040138833DD023
:102C8C000C8E3BD00C8E040134BF0BD0040134519C
:102C9C000F0B2E6E2E50020DB40EF324D96E000EB7
:102CAC000AD0040134510F0B2E6E2E50020D0F0E54
:102CBC00F324D96E000EF420DA6EDECF2FF0DDCFC8
:102CCC0030F02FC0D9FF30C0DAFFDFAE16D02FC0E6
:102CDC00D9FF30C0DAFFDFA410D0010E0401386F29
:102CEC000CD0040130511F0B000AD8B4C2D7010A12
:102CFC00D8B4C6D7030AD8B4C5D70CAE1200380E58
:102D0C00096E040E0A6E0C80020E0D6E1200000E7F
:102D1C001F6E000E1E6E020E2718D8A41FD020EEB8
:102D2C0001F01850D9261950DA22080EDF6E20EE69
:102D3C0002F01850D9261950DA22380EDE6E040E25
:102D4C00DD6E18C0D9FF19C0DAFF480EDF6E18C04F
:102D5C00D9FF19C0DAFF000EDB8E12000D500401F2
:102D6C00365D0E5004013759D8B004D036C40DF07E
:102D7C0037C40EF0EFEC12F020EE02F00F50D92613
:102D8C001050DA22380EDE6E040EDD6E0FC0D9FF45
:102D9C0010C0DAFF480EDF6E0FC0D9FF10C0DAFF8B
:102DAC00000EDB8E120086EC19F039D062C068F090
:102DBC0063C069F0010E00016E6F120064C068F010
:102DCC0065C069F0020E00016E6F120066C068F0FB
:102DDC0067C069F0030E00016E6F120060C068F0EE
:102DEC0061C069F0000E00016E6F00016F510001AF
:102DFC007011D8B41200FF0E00016F2500016F6F27
:102E0C00FF0E000170210001706F1200000E000116
:102E1C00706F000E6F6F000E00016A6F12000001E0
:102E2C006E51000AD8B4C2D7010AD8B4C7D7030A66
:102E3C00D8B4CCD7010AD8B4D1D7E8D7BEEC19F0A6
:102E4C0039D073C079F074C07AF0010E00017F6F35
:102E5C00120075C079F076C07AF0020E00017F6F17
:102E6C00120077C079F078C07AF0030E00017F6F02
:102E7C00120071C079F072C07AF0000E00017F6F01
:102E8C000001805100018111D8B41200FF0E000125
:102E9C0080250001806FFF0E000181210001816FF0
:102EAC001200000E0001816F000E806F000E0001F9
:102EBC007B6F120000017F51000AD8B4C2D7010AFF
:102ECC00D8B4C7D7030AD8B4CCD7010AD8B4D1D751
:102EDC00E8D7F6EC19F039D084C08AF085C08BF0B5
:102EEC00010E0001906F120086C08AF087C08BF033
:102EFC00020E0001906F120088C08AF089C08BF01E
:102F0C00030E0001906F120082C08AF083C08BF018
:102F1C00000E0001906F0001915100019211D8B484
:102F2C001200FF0E000191250001916FFF0E0001B0
:102F3C0092210001926F1200000E0001926F000EA0
:102F4C00916F000E00018C6F120000019051000A6D
:102F5C00D8B4C2D7010AD8B4C7D7030AD8B4CCD7CF
:102F6C00010AD8B4D1D7E8D72EEC1AF039D095C0D5
:102F7C009BF096C09CF0010E0001A16F120097C04F
:102F8C009BF098C09CF0020E0001A16F120099C03A
:102F9C009BF09AC09CF0030E0001A16F120093C02D
:102FAC009BF094C09CF0000E0001A16F0001A25197
:102FBC000001A311D8B41200FF0E0001A2250001DC
:102FCC00A26FFF0E0001A3210001A36F1200000EDF
:102FDC000001A36F000EA26F000E00019D6F120086
:102FEC000001A151000AD8B4C2D7010AD8B4C7D77E
:102FFC00030AD8B4CCD7010AD8B4D1D7E8D7336EEA
:10300C00000E346E040E356E2E502F6E306AD89032
:10301C002F3630363350316E326AD89031363236E4
:10302C00D890313632362F50312630503222D8904B
:10303C0031363236D8903136323631503426325021
:10304C00352234C0D9FF35C0DAFFDF9E2E50D8A40C
:10305C0007D03350020DB40EF324D96E000E06D0F7
:10306C003350020D0F0EF324D96E000EF420DA6EDD
:10307C0034C0DEFF35C0DDFF34C0D9FF35C0DAFF08
:10308C00DF9C20EE04F03450D9263550DA22DF8C48
:10309C001200000EE8CF22F7000EE8CF25F7000E45
:1030AC00E8CF26F7000EE8CF27F7000EE8CF28F779
:1030BC00000EE8CF29F7000EE8CF2AF7000EE8CF74
:1030CC002BF7000EE8CF2CF7000EE8CF24F727EEF5
:1030DC0036F00C0EDE18DE10D8B406D018D0020E66
:1030EC0017D066EC04F019D027EE32F0DECFFCF0EE
:1030FC00DDCFFDF00001FD51000AD8A408D000017D
:10310C00FC51010AD8B4EBD7020AD8B4EAD7050EA1
:10311C00E8CF1CF7000EE8CF1DF756EC13F01200A9
:10312C00000E286E000E226E000E1F6E000E1E6E1C
:10313C00000E246E000E276E0FC0D9FF10C0DAFFF0
:10314C007F0EDF16040E0F1A0FC0D9FF10C0DAFF66
:10315C007F0EDF16040E0F1A18C0D9FF19C0DAFF44
:10316C007F0EDF16000E0C6E000E0E6E000E0D6E36
:10317C00000E046E000E066E000E056EAFEC11F024
:10318C00000E3B6E030E3A6E000E3C6E000E3D6E52
:10319C00000E3F6E000E3E6E4DEC19F054EC10F02C
:1031AC0012000600FACF4CF0FBCF4DF0E9CF4EF0F9
:1031BC00EACF4FF0E1CF50F0E2CF51F0D9CF52F03F
:1031CC00DACF53F0F3CF54F0F4CF55F0F6CF56F0EE
:1031DC00F7CF57F0F8CF58F0F5CF59F0F5EC0CF0DD
:1031EC0059C0F5FF58C0F8FF57C0F7FF56C0F6FF9F
:1031FC0055C0F4FF54C0F3FF53C0DAFF52C0D9FFDF
:10320C0051C0E2FF50C0E1FF4FC0EAFF4EC0E9FFE2
:10321C004DC0FBFF4CC0FAFF5A921100160EF66E11
:10322C002B0EF76E000EF86E01EE00F010EEAEF005
:10323C000900F5CFEEFFE550E150FAE105EE80F024
:10324C0011EEC5F0EE6AE550E150FCE1E250FAE116
:10325C0002EE00F0400EEE6AE806FDE101EEAEF083
:10326C00400EEE6AE806FDE100EE60F0830EEE6AB9
:10327C00E806FDE100EE01F02D0EEE6AE806FDE138
:10328C005A905A92000EF86E000131EF1CF00FD0DC
:10329C009EEC1AF012009EEC1AF012009EEC1AF042
:1032AC001200EEEC1BF01200E2EC15F012003AC02A
:1032BC0040F03BC041F04150000AD8B404D07F0A22
:1032CC00D8A412001AD04050010AD8B4EAD7030A85
:1032DC00D8B41200010AD8B4E7D7060AD8B4120041
:1032EC00770AD8B41200010AD8B4D2D7070AD8B4D6
:1032FC00D5D7010AD8A41200CED74050FF0A12002D
:10330C0028D000016B05D8A403D08A888A8A1200C1
:10331C008B808B82120000016B05D8A403D08B80AC
:10332C008B8212008A888A8A120000016B05D8A44D
:10333C0003D08A988A9A12008B908B92120000010B
:10334C006B05D8A403D08B908B9212008A988A9A22
:10335C00120000016E51000AD8B4D3D7010AD8B4B8
:10336C00DAD7030AD8B4E1D7010AD8A41200E7D7F8
:10337C0028D000017C05D8A403D08A808A82120050
:10338C008A848A86120000017C05D8A403D08A8422
:10339C008A8612008A808A82120000017C05D8A4D9
:1033AC0003D08A908A9212008A948A9612000001A5
:1033BC007C05D8A403D08A948A9612008A908A92AB
:1033CC00120000017F51000AD8B4D3D7010AD8B437
:1033DC00DAD7030AD8B4E1D7010AD8A41200E7D788
:1033EC0028D000018D05D8A403D08C888C8A1200BB
:1033FC008C8C8C8E120000018D05D8A403D08C8C83
:10340C008C8E12008C888C8A120000018D05D8A439
:10341C0003D08C988C9A12008C9C8C9E120000010C
:10342C008D05D8A403D08C9C8C9E12008C988C9A01
:10343C00120000019051000AD8B4D3D7010AD8B4B5
:10344C00DAD7030AD8B4E1D7010AD8A41200E7D717
:10345C0028D000019E05D8A403D08C808C82120049
:10346C008C848C86120000019E05D8A403D08C8419
:10347C008C8612008C808C82120000019E05D8A4D0
:10348C0003D08C908C9212008C948C9612000001BC
:10349C009E05D8A403D08C948C9612008C908C92A0
:1034AC0012000001A151000AD8B4D3D7010AD8B434
:1034BC00DAD7030AD8B4E1D7010AD8A41200E7D7A7
:1034CC00000E0001DC6F4B0EDD6F000EDE6F000E88
:1034DC00DF6F000E0001E06F000E0001E16F080EBF
:1034EC000001E26F000E0001D06F1A0E366E010E55
:1034FC006CEC1BF01E0E366E020E6CEC1BF0000E0C
:10350C002E6E400E2F6E050E306E400E316E020E7A
:10351C0078EC14F02EC0C9F02FC0CAF0000E0001D8
:10352C00C76F000E0001C86F000E0001D36F1200B0
:10353C006DA228D08D9012001C041D10D8B414D08C
:10354C004B0E1C181D10D8B416D01D5004E1970E4C
:10355C001C5CD8A01CD0000E1D6E000E1C6E17D06B
:10356C001C041D10D8A402D08D8011D0320E1C1852
:10357C001D10D8A402D08D900AD0B70E1C5C030E7F
:10358C001D58E7D72950200AD8B4D6D7E9D71C4AFA
:10359C001D2A1200020E2718D8A403D049EC0FF0F4
:1035AC001200000E276E2450D8A41FD020EE01F07C
:1035BC001850D9261950DA22080EDF6E20EE02F0D0
:1035CC001850D9261950DA22300EDE6E040EDD6E3C
:1035DC0018C0D9FF19C0DAFF0C0EDF6E18C0D9FF66
:1035EC0019C0DAFF000EDB8E1200000E246E1200E2
:1035FC000001E5510001E3250001E96F0001E651EE
:10360C000001E4210001EA6F0001EA5105E1C80E56
:10361C000001E95DD8A00BD0380E0001E9250001AE
:10362C00E76FFF0E0001EA210001E86F04D0E9C04A
:10363C00E7F0EAC0E8F0E7C0E3F0E8C0E4F012001D
:10364C0095909592959495969598959A959C959E0E
:10365C0093909392939493969398939A9490949224
:10366C008C908C928C948C968C988C9A8C9C8C9E36
:10367C008A908A928A948A968A988A9A8B908B924C
:10368C00969296948D928D94120070A01DD01AC0B3
:10369C00D9FF1BC0DAFF800EDE18D8A414D00FC0DF
:1036AC00D9FF10C0DAFF840EDE18D8A40CD01AC0D3
:1036BC00D9FF1BC0DAFF0C0EDF6E1AC0D9FF1BC07E
:1036CC00DAFF000EDB8E7090689A1200396E36A409
:1036DC0005D0000E2E6E395005EC18F036A205D030
:1036EC00010E2E6E395005EC18F03950010D700E8C
:1036FC00F324376E0F0EF420386E37C0D9FF38C064
:10370C00DAFF36C0DFFF120018C7E8FF010AD8A4A1
:10371C0005D0000EE8CF18F7CFEC0FF017C7E8FF75
:10372C00010AD8A41200000EE8CF17F74FEC18F0DE
:10373C00000E0001B16F000EB06F1200E3C0E9F093
:10374C00E4C0EAF009D0E9C0D9FFEAC0DAFFE5C06D
:10375C00DFFF0001E94BEA2B0001E707D8A0E807DF
:10376C000001E729F0E10001E829D8B41200EBD7F9
:10377C002950D8A41200000E6D6E000E696E160E44
:10378C006F6E9F0E6B6E7B0E696ED08EA28AA08AB6
:10379C00F28E01D06D866DA6FDD7010E296E12003A
:1037AC00000E0001D16F000E3B6E740E3A6E000ECF
:1037BC003C6E000E3D6E000E3F6E000E3E6E4DECEC
:1037CC0019F06D92699401D0689468A41200FCD72A
:1037DC0066EC1AF0000E0001E06F080E0001E26FBB
:1037EC00000E0001E16F000E0001DC6F4B0EDD6F6F
:1037FC00000EDE6F000EDF6F000E0001D26F1200A4
:10380C002EC034F02FC035F008D034C0D9FF35C0ED
:10381C00DAFF30C0DFFF344A352A3206D8A033062F
:10382C003228F3E13328D8B41200EFD769846898B2
:10383C006D82010E0001D16F000E3B6E750E3A6E5B
:10384C00000E3C6E000E3D6E000E3F6E000E3E6E86
:10385C004DEC19F01200000E69EC1CF078EC1CF029
:10386C00ADEC0BF0BEEC1BF0D5EC14F0200E296087
:10387C0001D0FAD76DB2F8D724EC0EF0F5D7A09A98
:10388C000001D351D8A40CD0E3C0C1F0E4C0C2F005
:10389C00E5C0CFF0010E0001CE6F010E0001D36F19
:1038AC00A08A1200000ED56ED596D58CD59AD5501F
:1038BC00F80B0209D56EF29AF294000ED76E690ECF
:1038CC00D66ED58E12000001E36F02D096901200D6
:1038DC000001E351000AD8B4F9D7010AD8B4120098
:1038EC00030A120026EC1BF058EC1CF053EC0CF005
:0238FC001200B8
:020000040020DA
:08000000FFFFFFFFFFFFFFFF00
:020000040030CA
:0E000000240E3F0DFF8181FF0FC00FE00F4067
:00000001FF
