:0400000007EF00F016
:0A0008005E82C7ED14F061EF17F0FF
:1008000000C60880084C08090809024300020100DC
:10081000C032090400000102020100052400100199
:100820000424020205240600010524010001070535
:10083000810308000209040100020A000000070504
:100840000202400000070582024000003403540009
:100850005200410049004E002000530049004D0065
:1008600055004C00410054004F005200200046004B
:1008700077005600650072002E0031002E00300017
:10088000340349004E005300590053002000440037
:10089000690067006900740061006C00200042007C
:1008A00061006E00670061006C006F0072006500FF
:1008B0002E0020001201000202000008D8040A00E5
:0B08C000000101020001040309040014
:1008CC00040EE8CF1CF7000EE8CF1DF739C7E8FF80
:1008DC00010AD8A4D1D03AC7E8FF010AD8B40ED087
:1008EC003AC7E8FF020AD8B409D0050EE8CF1CF7C6
:1008FC00000EE8CF1DF7010EE8CF24F727EE3BF0F2
:10090C00030EDB507FE1020EDB507CE12D0EDE5C32
:10091C00010EDE58D8B076D027EE3BF0DE50DE105C
:10092C00DE10DE10D8B46ED027EE3BF0030EDB5099
:10093C0022E1020EDB501FE1010EDB501CE10B0E1D
:10094C00DE5CD8B018D027EE3BF0FF0EDE240001A1
:10095C00F06FFF0EDE20F16FFF0EDE20F26FFF0E48
:10096C00DE20F36FF0C03BF7F1C03CF7F2C03DF76F
:10097C00F3C03EF759D03BC7E3F03CC7E4F03DC7AA
:10098C00E5F03EC7E6F00A0E0001E76F000EE86FD7
:10099C00000EE96F000EEA6FA4EC15F00001E3C045
:1009AC003BF7E4C03CF7E5C03DF7E6C03EF7080E68
:1009BC003BC7F0F03CC7F1F03DC7F2F03EC7F3F097
:1009CC00F025F46F000EF121F56F000EF221F66F99
:1009DC00000EF321F76FF4C03BF7F5C03CF7F6C0FF
:1009EC003DF7F7C03EF727EE3BF0030EDB500AE174
:1009FC00020EDB5007E1010EDB5004E1270EDE5C3A
:100A0C00D8A012D0050EE8CF1CF7000EE8CF1DF7CA
:100A1C00010EE8CF25F7000EE8CF26F7000EE8CF41
:100A2C0027F7000EE8CF28F727EE3FF0030EDB5038
:100A3C0010E1020EDB500DE1DE28FF0EDE58D8B0BF
:100A4C0008D027EE3FF0DE50DE10DE10DE10D8A40A
:100A5C0054D0050EE8CF1CF7000EE8CF1DF7010EA1
:100A6C00E8CF29F7000EE8CF2AF7000EE8CF2BF7D6
:100A7C00000EE8CF2CF741D039C7E8FF020AD8A402
:100A8C0033D03BC7F8F03CC7F9F03DC7FAF03EC78E
:100A9C00FBF0010E0001F86508D0050EE8CF1CF73D
:100AAC00000EE8CF1DF7010EF86F010EF96508D0A6
:100ABC00050EE8CF1CF7000EE8CF1DF7010EF96FFD
:100ACC0027EE1CF0050EDE18DE10D8A416D0000E92
:100ADC00FA6F000EFB6FF8C025F7F9C026F7FAC0C5
:100AEC0027F7FBC028F709D0050EE8CF1CF7000E3E
:100AFC00E8CF1DF7010EE8CF23F727EE1CF0040E0C
:100B0C00DE18DE10D8A4120039C7E8FF010AD8A4F9
:100B1C0056D043C7E8FF010AD8B417D040D09FEC99
:100B2C000CF0120013EC0CF0120087EC0BF012001E
:100B3C00FBEC0AF01200050EE8CF1CF7000EE8CF14
:100B4C001DF7010EE8CF22F7120027EE38F0DF5028
:100B5C00010AD8B4E4D7030AD8B4E4D7010AD8B44C
:100B6C00E4D7070AD8B4E4D7E6D7000E00019D6F8E
:100B7C001200000E00018C6F1200000E00017B6F42
:100B8C001200000E00016A6F1200050EE8CF1CF770
:100B9C00000EE8CF1DF7010EE8CF22F7120027EE6A
:100BAC0038F0DF50010AD8B4E0D7030AD8B4E1D743
:100BBC00010AD8B4E2D7070AD8B4E3D7E6D739C7C5
:100BCC00E8FF020AD8A4120042D00001F8B102D00A
:100BDC008C9001D08C800001F8B102D08C9201D0A5
:100BEC008C820001F9B102D08C9401D08C8400016C
:100BFC00F9B102D08C9601D08C86000E00019D6F4D
:100C0C0012000001F8B102D08C9801D08C88000140
:100C1C00F8B102D08C9A01D08C8A0001F9B102D0C3
:100C2C008C9C01D08C8C0001F9B102D08C9E01D02F
:100C3C008C8E000E00019D6F1200050EE8CF1CF784
:100C4C00000EE8CF1DF7010EE8CF22F7120027EEB9
:100C5C0038F0DF50010AD8B4B8D7030AD8B4D1D7CA
:100C6C00ECD704013205D8A410D030511F0B000969
:100C7C00D8A40BD00001BF8F030E04013119D8A4E6
:100C8C0002D0010E01D0000E476E3251D8A41200D2
:100C9C0030511F0B020AD8A4120034510F0B00095B
:100CAC00D8B4120034510F0B156E030E15601200E0
:100CBC00200E0001E119D8A41200BF8F040134BF2B
:100CCC0019D034510F0B156E1550020DC80EF324AC
:100CDC00D96E000EF420DA6EDECF19F0DDCF1AF0EB
:100CEC0034510F0B156E1550010DD40EF324D96E23
:100CFC00000E18D034510F0B156E1550020DC20E8C
:100D0C00F324D96E000EF420DA6EDECF19F0DDCFAD
:100D1C001AF034510F0B156E1550010DD70EF3242C
:100D2C00D96E000EF420DA6EDF50186E18B002D0B7
:100D3C00199401D0198434BF0AD034510F0B156E9D
:100D4C001550020DC80EF324D96E000E09D0345183
:100D5C000F0B156E1550020DC20EF324D96E000E3A
:100D6C00F420DA6E19C0DEFF1AC0DDFF030E311954
:100D7C00D8A42DD019C0D9FF1AC0DAFFDFAE1AD013
:100D8C0034BF0AD034510F0B156E1550010DD40E13
:100D9C00F324D96E000E0AD0040134510F0B156EDA
:100DAC001550010DD70EF324D96E000EF420DA6E17
:100DBC000001DF8219C0D9FF1AC0DAFF000EDB84F4
:100DCC0019C0D9FF1AC0DAFF000EDB8E1200040E18
:100DDC00191A19C0D9FF1AC0DAFFDFAE1BD019C01F
:100DEC00D9FF1AC0DAFF7F0EDF1619C0D9FF1AC05F
:100DFC00DAFF000EDB8C000E0E6E050E0D6E19C0A8
:100E0C000FF01AC010F0000E126E020E116E9AEC5A
:100E1C0017F006D019C0D9FF1AC0DAFF000EDB8C10
:100E2C00040E191A18B206D019C0D9FF1AC0DAFF6D
:100E3C00DFAE30D0040134BF0AD034510F0B156E25
:100E4C001550010DD40EF324D96E000E0AD00401F6
:100E5C0034510F0B156E1550010DD70EF324D96EAE
:100E6C00000EF420DA6E0001DF9219C0D9FF1AC00F
:100E7C00DAFF3B0EDF16000E0E6E050E0D6E19C05E
:100E8C000FF01AC010F0000E126E020E116E9AECDA
:100E9C0017F006D019C0D9FF1AC0DAFF3B0EDF16C7
:100EAC00040134510F0B156E1550010D700EF32407
:100EBC00166E0F0EF420176E16C0D9FF17C0DAFF8E
:100ECC00FE0EDF16120000019D05D8A41AD08980F1
:100EDC0089829B519C11D8B406D0FF0E9B259B6F29
:100EEC00FF0E9C219C6F9B519C11D8A415D0A25134
:100EFC00A311D8A403D0000E9D6F0ED0E5EC16F014
:100F0C000BD08990899239C7E8FF020AD8B404D073
:100F1C008C908C928C948C9600018C05D8A41AD051
:100F2C00898489868A518B11D8B406D0FF0E8A2504
:100F3C008A6FFF0E8B218B6F8A518B11D8A415D021
:100F4C0091519211D8A403D0000E8C6F0ED0A6EC48
:100F5C0016F00BD08994899639C7E8FF020AD8B4E9
:100F6C0004D08C988C9A8C9C8C9E00017B05D8A408
:100F7C001AD0898A898879517A11D8B406D0FF0E93
:100F8C007925796FFF0E7A217A6F79517A11D8A46D
:100F9C0010D080518111D8A403D0000E7B6F09D0E2
:100FAC0067EC16F006D08998899A8A908A928A946E
:100FBC008A9600016A05D8A41AD08D808D8268515A
:100FCC006911D8B406D0FF0E6825686FFF0E692131
:100FDC00696F68516911D8A412006F517011D8A4AF
:100FEC0003D0000E6A6F120028EC16F012008D90E0
:100FFC008D928A988A9A8B908B921200A09A0001FB
:10100C00DA51DB11D8B40FD0DAC0D9FFDBC0DAFF6C
:10101C00DFAE03D0EA6BEA2B02D00001EA6BEA5197
:10102C00EB6FEC6B04D0000EEC6F000EEB6FEB5122
:10103C00EC11D8B402D0A08A1200030EE219D8A485
:10104C0002D0000EE26FE251D8A402D0A08A1200A6
:10105C00020EE219D8A413D0010EE36F000EE46F58
:10106C00000EE56F000EE66F020EAEEC11F0E3C061
:10107C00DAF0E4C0DBF0030E0001E26F58D0E205B9
:10108C00D8A455D0400EDF6503D0400EEE6F02D0D1
:10109C00DFC0EEF0EE510008DF25DF6F000ECE6FE3
:1010AC00050ECF6FEEC0EDF0DE51D8B410D022D0CB
:1010BC00D1C0D9FFD2C0DAFFCEC0E1FFCFC0E2FF72
:1010CC00DFCFE7FFCE4BCF2BD14BD22BED07ED5122
:1010DC00D8B413D0EDD7D1C0D9FFD2C0DAFFCEC06F
:1010EC00E1FFCFC0E2FFDFCFE7FFCE4BCF2BD14BE1
:1010FC00D22BED07ED51D8A4EED7DF51D8A408D0F0
:10110C00400EEE19D8A402D0020E01D0030EE26FED
:10111C00010EE36F000EE46F050EE56FEEC0E6F016
:10112C00020EAEEC11F0E3C0DAF0E4C0DBF0A08A02
:10113C0012000001E105D8B46DBA06D0000E686E3D
:10114C0069806988020EE16F68B469A403D0689461
:10115C000CEC1AF06DA202D0A19A120068B069A032
:10116C0007D065EC0AF0A08A040E0001E16F6890CC
:10117C0068B869A803D04EEC1AF0689868AC18D01F
:10118C0069AC0ED0000E0E6E730E0D6E000E0F6E4F
:10119C00000E106E000E126E010E116E9AEC17F00E
:1011AC00689C4350D8A443064350D8B44CEC11F07F
:1011BC0068BA69AA02D064EC19F068B269A20FD0BF
:1011CC007F0E0E6E0D68000E0F6E000E106E000E70
:1011DC00126E010E116E9AEC17F0000E6A6E040E70
:1011EC000001E16102D0A19A120069A639D0000E6B
:1011FC001E6E030E1E6401D033D068A631D06CCFA6
:10120C005CF05C30E832E8320F0B456E68965CB4EB
:10121C0007D04550010DD40EF324D96E000E06D024
:10122C004550010DD70EF324D96E000EF420DA6E62
:10123C000001DF704550D8A403D07FEC10F00ED025
:10124C00000E0E6E720E0D6E5C0E0F6E000E106E9A
:10125C00000E126E000E116E9AEC17F01E2AC9D7F2
:10126C00A19A1200800E04013019D8A41200C00EED
:10127C000001BF6F82D0B40E0001BC6F080EBD6FB1
:10128C00000EC16F120EC06F120004013251D8A4AF
:10129C0040D03251020D070EF324F66E080EF420E6
:1012AC00F76E0900F5CFBCF00A00F5CFBDF0020EC9
:1012BC000001BC25016E000EBD21026E01C0F6FFBF
:1012CC0002C0F7FFF86A070EF76403D00800F55068
:1012DC0005D0F6CFE1FFF7CFE2FFE7500001C06F7A
:1012EC00030EBC25016E000EBD21026E01C0F6FF7F
:1012FC0002C0F7FFF86A070EF76403D00800F55038
:10130C0005D0F6CFE1FFF7CFE2FFE7500001C16F48
:10131C001200000E0001BF6F1200030E04013261B7
:10132C0024D03251020D010EF324F66E080EF42077
:10133C00F76E0900F5CFBCF00A00F5CFBDF0BCC0CC
:10134C00F6FFBDC0F7FFF86A070EF76403D008007C
:10135C00F55005D0F6CFE1FFF7CFE2FFE750016E75
:10136C0001500001C06FC16B1200000E0001BF6F75
:10137C001200000E0001BF6F120004013351010A6C
:10138C00D8B479D7030AD8B480D7010AD8B4C5D752
:10139C00F0D7A09A000E6A6E000E686E000E706E8A
:1013AC00710E0001E36F0F0EE46F000EE66F000E7E
:1013BC00E56F000EE86F020EE76FF4EC19F0160EF5
:1013CC006F6E9F0E6B6E7B0E696E000E0001EB6FE5
:1013DC000B0EEB6501D00ED0EB51040D000EF32477
:1013EC00D96E040EF420DA6EDE6ADE6ADE6ADD6A1D
:1013FC00EB2BEED76D8C000E6E6E6D986D9C09D03C
:10140C006896000EBF6F000EB16F000EB36F000E2A
:10141C00B26F68B6F5D7010E416E010E406E000E2C
:10142C003F6E000E3E6E000E466E000EEB6F020E0F
:10143C00EB6501D02ED0EB51020DC20EF324D96E08
:10144C00000EF420DA6E000EDE6E000EDD6EEB5137
:10145C00020DC80EF324D96E000EF420DA6E000EC5
:10146C00DE6E000EDD6EEB51010DD70EF324D96E3E
:10147C00000EF420DA6E000EDF6EEB51010DD40E6F
:10148C00F324D96E000EF420DA6E000EDF6EEB2B17
:10149C00CED7080EC26F040EC36F160E706E040EFC
:1014AC000401036F300E026F080E016F040E006F03
:1014BC00008F000E5D6E000E0001E16F1200A09A0D
:1014CC00000E6A6E000E686E000E706E710E016E6C
:1014DC000F0E026E000E046E000E036E000E066EF2
:1014EC00020E056E23EC1AF0160E6F6E9F0E6B6ECD
:1014FC007B0E696E000E096E0B0E096401D00ED0C6
:10150C000950040D000EF324D96E040EF420DA6E8B
:10151C00DE6ADE6ADE6ADD6A092AEED76D8C000EA1
:10152C006E6E6D986D9C0AD06896000E0001BF6FB0
:10153C00000EB16F000EB36F000EB26F68B6F4D729
:10154C00010E416E010E406E000E3F6E000E3E6E9F
:10155C00000E466E000E096E020E096401D02ED0EC
:10156C000950020DC20EF324D96E000EF420DA6E6F
:10157C00000EDE6E000EDD6E0950020DC80EF32457
:10158C00D96E000EF420DA6E000EDE6E000EDD6EEB
:10159C000950010DD70EF324D96E000EF420DA6E2B
:1015AC00000EDF6E0950010DD40EF324D96E000E1F
:1015BC00F420DA6E000EDF6E092ACED7080E000179
:1015CC00C26F040EC36F160E706E040E0401036F0F
:1015DC00300E026F080E016F040E006F008F000EAC
:1015EC005D6E000E0001E16F12003FC76FF040C747
:1015FC0070F03AC76BF027EE3BF0DECFE3F0DDCFB7
:10160C00E4F00001D890E337E437D890E337E437BF
:10161C00020EE327000EE423000EE325D96E010E23
:10162C00E421DA6EDECFE5F0DDCFE6F027EE3BF01D
:10163C00DECFE7F0DDCFE8F0D890E737E837D89089
:10164C00E737E837000EE725D96E010EE821DA6E90
:10165C00DECFE9F0DDCFEAF0E551E925606FE65128
:10166C00EA21616F27EE3BF0DECFE3F0DDCFE4F053
:10167C00D890E337E437D890E337E437000EE3250E
:10168C00D96E010EE421DA6EDECF62F0DDCF63F0AD
:10169C0027EE3BF0DECFE3F0DDCFE4F0D890E3377C
:1016AC00E437D890E337E437020EE327000EE42347
:1016BC00000EE325D96E010EE421DA6EDECF64F064
:1016CC00DDCF65F027EE3BF0DECFE3F0DDCFE4F0CD
:1016DC00D890E337E437D890E337E437000EE325AE
:1016EC00D96E010EE421DA6EDECF66F0DDCF67F045
:1016FC0060C068F061C069F0000E6E6F010E6A6F19
:10170C0012003FC780F040C781F03AC77CF027EE4B
:10171C003BF0DECFE3F0DDCFE4F00001D890E3370F
:10172C00E437D890E337E437020EE327000EE423C6
:10173C00000EE325D96E010EE421DA6EDECFE5F062
:10174C00DDCFE6F027EE3BF0DECFE7F0DDCFE8F0C3
:10175C00D890E737E837D890E737E837000EE72519
:10176C00D96E010EE821DA6EDECFE9F0DDCFEAF0BA
:10177C00E551E925716FE651EA21726F27EE3BF0D6
:10178C00DECFE3F0DDCFE4F0D890E337E437D89048
:10179C00E337E437000EE325D96E010EE421DA6E4F
:1017AC00DECF73F0DDCF74F027EE3BF0DECFE3F04D
:1017BC00DDCFE4F0D890E337E437D890E337E43763
:1017CC00020EE327000EE423000EE325D96E010E72
:1017DC00E421DA6EDECF75F0DDCF76F027EE3BF04C
:1017EC00DECFE3F0DDCFE4F0D890E337E437D890E8
:1017FC00E337E437000EE325D96E010EE421DA6EEF
:10180C00DECF77F0DDCF78F071C079F072C07AF06E
:10181C00000E7F6F010E7B6F12003FC791F040C727
:10182C0092F03AC78DF027EE3BF0DECFE3F0DDCF40
:10183C00E4F00001D890E337E437D890E337E4378D
:10184C00020EE327000EE423000EE325D96E010EF1
:10185C00E421DA6EDECFE5F0DDCFE6F027EE3BF0EB
:10186C00DECFE7F0DDCFE8F0D890E737E837D89057
:10187C00E737E837000EE725D96E010EE821DA6E5E
:10188C00DECFE9F0DDCFEAF0E551E925826FE651D4
:10189C00EA21836F27EE3BF0DECFE3F0DDCFE4F0FF
:1018AC00D890E337E437D890E337E437000EE325DC
:1018BC00D96E010EE421DA6EDECF84F0DDCF85F037
:1018CC0027EE3BF0DECFE3F0DDCFE4F0D890E3374A
:1018DC00E437D890E337E437020EE327000EE42315
:1018EC00000EE325D96E010EE421DA6EDECF86F010
:1018FC00DDCF87F027EE3BF0DECFE3F0DDCFE4F079
:10190C00D890E337E437D890E337E437000EE3257B
:10191C00D96E010EE421DA6EDECF88F0DDCF89F0CE
:10192C0082C08AF083C08BF0000E906F010E8C6F1A
:10193C0012003FC7A2F040C7A3F03AC79EF027EEB3
:10194C003BF0DECFE3F0DDCFE4F00001D890E337DD
:10195C00E437D890E337E437020EE327000EE42394
:10196C00000EE325D96E010EE421DA6EDECFE5F030
:10197C00DDCFE6F027EE3BF0DECFE7F0DDCFE8F091
:10198C00D890E737E837D890E737E837000EE725E7
:10199C00D96E010EE821DA6EDECFE9F0DDCFEAF088
:1019AC00E551E925936FE651EA21946F27EE3BF060
:1019BC00DECFE3F0DDCFE4F0D890E337E437D89016
:1019CC00E337E437000EE325D96E010EE421DA6E1D
:1019DC00DECF95F0DDCF96F027EE3BF0DECFE3F0D7
:1019EC00DDCFE4F0D890E337E437D890E337E43731
:1019FC00020EE327000EE423000EE325D96E010E40
:101A0C00E421DA6EDECF97F0DDCF98F027EE3BF0D5
:101A1C00DECFE3F0DDCFE4F0D890E337E437D890B5
:101A2C00E337E437000EE325D96E010EE421DA6EBC
:101A3C00DECF99F0DDCF9AF093C09BF094C09CF070
:101A4C00000EA16F010E9D6F120020EE01F03950B7
:101A5C00D9263A50DA22DF50026E02500001B25DF4
:101A6C00000EB359D8A0B2C002F00250B25F000E03
:101A7C00B35B000E016E11D00150010D380EF32432
:101A8C00D96E040EF420DA6EAEC0E1FFAFC0E2FFF7
:101A9C00DFCFE7FFAE4BAF2B012A0250015CD8A081
:101AAC00EBD7B251B311D8B432D020EE01F037508D
:101ABC00D9263850DA22080EDF6E20EE02F03750AD
:101ACC00D9263850DA22380EDE6E040EDD6E39C09F
:101ADC00D9FF3AC0DAFFDFBC0DD037C0D9FF38C010
:101AEC00DAFF480EDF6E37C0D9FF38C0DAFF000EC0
:101AFC00DB8E120037C0D9FF38C0DAFF080EDF6E5C
:101B0C0037C0D9FF38C0DAFF000EDB8E120020EE92
:101B1C0001F03750D9263850DA22080EDF6E20EE4D
:101B2C0002F03750D9263850DA22300EDE6E040E11
:101B3C00DD6E37C0D9FF38C0DAFF040EDF6E37C058
:101B4C00D9FF38C0DAFF000EDB8EB19F4250D8A40B
:101B5C0012004CEC11F01200000E00019D6F000EF3
:101B6C008C6F000E7B6F000E6A6F000E9C6F000E68
:101B7C009B6F000E8B6F000E8A6F000E7A6F000E3B
:101B8C00796F000E696F000E686F000EE8CF18F7C2
:101B9C00000EE8CF17F7000EE8CF12F7000EE8CFD3
:101BAC0013F7000EE8CF14F7000EE8CF15F7000E70
:101BBC00E8CF16F7000EE46F000EE36FE4510FE16F
:101BCC00C80EE35DD8B00BD0800EE325D96E050EA0
:101BDC00E421DA6E000EDF6EE34BE42BEFD7000E40
:101BEC00E46F000EE36FE4510FE1C80EE35DD8B073
:101BFC000BD0480EE325D96E060EE421DA6E000EEA
:101C0C00DF6EE34BE42BEFD7000EE46F000EE36FB7
:101C1C00E4510FE1160EE35DD8B00BD02F0EE32587
:101C2C00D96E070EE421DA6E000EDF6EE34BE42B67
:101C3C00EFD7000EE46F000EE36FE4510FE1160EC8
:101C4C00E35DD8B01200190EE325D96E070EE4211E
:101C5C00DA6E000EDF6EE34BE42BEFD712000001BF
:101C6C00E251D8A479D0AE0EEA6F010EEB6F400EA4
:101C7C00EC6FC7EC12F00001F46F000EF56F37D06B
:101C8C00F551010DAE0EF324D96E010EF420DA6E6F
:101C9C0017EE15F0E6CFF0F0E5CFF1F0480EF02599
:101CAC00E16E060EF121E26EDFCFE7FF27EE15F0B5
:101CBC00DECFF0F0DDCFF1F0010EF027000EF123B6
:101CCC00F0C015F7F1C016F727EE15F0010EDB503A
:101CDC0004E1C80EDE5CD8A006D0000EE8CF15F7E4
:101CEC00000EE8CF16F7010EE8CF18F7F52BF451DC
:101CFC00F55DD8A0C5D712C7E8FF010AD8A42CD02F
:101D0C00000EE8CF12F7000EF56F13D0F551010D50
:101D1C00800EF324D96E050EF420DA6EF551010D08
:101D2C00000EF324E16E020EF420E26EDFCFE7FF2B
:101D3C00F52B27EE10F0F551F26FF36BDE50F25DE0
:101D4C00DE50F359D8A0E2D7000EE36F020EE46F19
:101D5C0010C7E5F086EC1AF004EC08F012006D9850
:101D6C000001BFBF38D0B1AF0BD0020E486E3E5051
:101D7C00D8B478EC14F0000E406E000E416E1200D8
:101D8C0020EE01F03750D9263850DA22080EDF6EDB
:101D9C0020EE02F03750D9263850DA22300EDE6EA3
:101DAC00040EDD6E37C0D9FF38C0DAFF0C0EDF6EC3
:101DBC0037C0D9FF38C0DAFF000EDB8EC2C0D9FFA6
:101DCC00C3C0DAFF040EDF6EC2C0D9FFC3C0DAFF96
:101DDC00000EDB8E1200040130AF10D0010E486EE5
:101DEC003F50D8B478EC14F0000E406E000E416EEB
:101DFC004250D8A412004CEC11F01200020E486EA6
:101E0C0020EE01F03750D9263850DA22080EDF6E5A
:101E1C0020EE02F03750D9263850DA22300EDE6E22
:101E2C00040EDD6E37C0D9FF38C0DAFF040EDF6E4A
:101E3C0037C0D9FF38C0DAFF000EDB8E000E406EC3
:101E4C00000E416E4250D8A412004CEC11F012005E
:101E5C0004013039E832030B0009D8A4120047D032
:101E6C000001BF8F080EE16F120038EC09F0120070
:101E7C009FEC0FF012005D0E0001BC6F000EBD6FE9
:101E8C00BF81010EC06FBF8F1200D2EC13F0120095
:101E9C0037EC06F0120004013451010D5A0EF324F4
:101EAC000001BC6F000EF420BD6FBF81010EC06F2E
:101EBC00BF8F12000001BF8F04013451010D5A0E67
:101ECC00F324D96E000EF420DA6E32C4DFFF120058
:101EDC00000E0E6E020E0D6E000E0F6E000E106ECA
:101EEC00000E126E000E116E9AEC17F01200040127
:101EFC003151000AD8B4C9D7010AD8B4C9D7020ADB
:101F0C00D8B4C6D7060AD8B4ABD7030AD8B4ADD761
:101F1C00010AD8B4DDD70F0AD8B4ADD7010AD8B4AA
:101F2C00A7D7030AD8B4B7D7010AD8B4C3D7070ABE
:101F3C0012000001BF8F710E016E0F0E026E000EAB
:101F4C00046E000E036E000E066E020E056E23EC80
:101F5C001AF0000E016E040E026E000E046E000EDE
:101F6C00036E000E066E300E056E23EC1AF06D8CAF
:101F7C00000E156E020E156401D016D01550010D11
:101F8C00D70EF324D96E000EF420DA6E000EDF6E3D
:101F9C001550010DD40EF324D96E000EF420DA6E18
:101FAC00000EDF6E152AE6D75A0E016E000E026E79
:101FBC00000E046E000E036E000E066E020E056E11
:101FCC0023EC1AF06D9C080E0001C26F040EC36F57
:101FDC00000E396E040E3A6E39C037F03AC038F044
:101FEC0032C45DF05D50D8A403D0100EE16F120026
:101FFC00000E0E6E010E0D6E5D0E0F6E000E106E4D
:10200C00000E126E010E116E9AEC17F0200E0001EC
:10201C00E16F1200000E0001F16F000EF06FF15134
:10202C0067E1C80EF05DD8B01200480EF025D96EED
:10203C00060EF121DA6E5B0EDE18D8A454D0F0C077
:10204C00E3F0F1C0E4F0000EE66F150EE56FA3ECC3
:10205C0019F0E3C0ECF0E4C0EDF0480E0001EC2503
:10206C00D96E060EED21DA6E5D0EDE18D8A43BD0CB
:10207C00000EEF6F000EEE6FEF5122E11DD0F0C09D
:10208C00E3F0F1C0E4F0EEC0E5F0EFC0E6F0A3EC55
:10209C0019F0480E0001E325D96E060EE421DA6E24
:1020AC002F0EEE25E16E070EEF21E26EDFCFE7FF7C
:1020BC00EE4BEF2BEF5104E1160EEE5DD8A0DFD7FF
:1020CC00010EE8CF17F7480EF025D96E060EF12158
:1020DC00DA6E000EDF6E480EEC25D96E060EED2181
:1020EC00DA6E000EDF6EF04BF12BF15101E199D756
:1020FC0012002D0E436E5CC01BF0FD0E1B16D8A4F7
:10210C0057D05CC01BF0D8901B323F0E1B161B50D7
:10211C00040D000EF324396E040EF4203A6E39C00F
:10212C0037F03AC038F0040E371A39C0D9FF3AC02C
:10213C00DAFFDF30E8320F0B0D0AD8A436D0000ED0
:10214C001D6E070E1D6401D023D020EE02F0395015
:10215C00D9263A50DA22DECF1BF0DDCF1CF01BC0A3
:10216C00D9FF1CC0DAFF1D50010D300EF324E16EB7
:10217C00040EF420E26EDFCFE7FF20EE02F03950C0
:10218C00D9263A50DA22DE2A000EDD221D2AD9D7B2
:10219C0020EE02F03950D9263A50DA22300EDE6E9B
:1021AC00040EDD6EE6EC15F012000BEC19F01200CB
:1021BC005C50FD0B040AD8A412006AEC12F0120059
:1021CC00080E016E0001C15110E1080EC05DD8B0BF
:1021DC000CD0C0C001F04950D8A402D0010E04D0DC
:1021EC004904D8A402D0020E496E0150C05F000E03
:1021FC00C15B20EE01F0C251D926C351DA2201C0D5
:10220C00DFFF380E356E040E366EBFA11CD03AD0EF
:10221C00BCC0F6FFBDC0F7FFF86A35C0D9FF36C0A9
:10222C00DAFF070EF76403D00800F55005D0F6CF9F
:10223C00E1FFF7CFE2FFE750DF6E0001BC4BBD2B97
:10224C00354A362A01060150D8B41200E1D7BCC079
:10225C00F6FFBDC0F7FFF86A35C0D9FF36C0DAFF0C
:10226C00070EF76403D00800F55005D0F6CFE1FF58
:10227C00F7CFE2FFE750DF6E0001BC4BBD2B354AB8
:10228C00362A01060150D8B41200E1D74150D8A427
:10229C001200010E416E4050D8A41200010E406E87
:1022AC00020E4818D8A416D0000120EE01F0C2513D
:1022BC00D926C351DA22000EDF6EC2C0D9FFC3C0CB
:1022CC00DAFF480EDF6EC2C0D9FFC3C0DAFF000EC2
:1022DC00DB8E12004804D8A41200000E446E20EECF
:1022EC0001F03950D9263A50DA22080EDF6E20EE72
:1022FC0002F03950D9263A50DA22300EDE6E040E36
:10230C00DD6E39C0D9FF3AC0DAFF040EDF6E39C07A
:10231C00D9FF3AC0DAFF000EDB8E010E446E20EEC0
:10232C0001F03750D9263850DA22080EDF6E20EE35
:10233C0002F03750D9263850DA22300EDE6E040EF9
:10234C00DD6E37C0D9FF38C0DAFF800EDF6E1200A9
:10235C000001E76F0001E351D8B407D0E751020D3B
:10236C00C20EF324D96E000E06D0E751020DC80E32
:10237C00F324D96E000EF420DA6EDECFE8F0DDCF58
:10238C00E9F0E851E911D8A405D0000EE36F000E76
:10239C00E46F120020EE02F0E851D926E951DA225E
:1023AC00E4C0DEFFE5C0DDFF20EE01F0E851D926E8
:1023BC00E951DA22E6C0DFFFE8C0D9FFE9C0DAFF55
:1023CC00400EDF16E8C0D9FFE9C0DAFF000EDB864D
:1023DC00E8C0D9FFE9C0DAFF000EDB8EE351D8B4B8
:1023EC0007D0E751020DC20EF324D96E000E06D0B1
:1023FC00E751020DC80EF324D96E000EF420DA6EEC
:10240C00040EDF1AE8C0E3F0E9C0E4F01200056E38
:10241C000150D8B407D00550020DC20EF324D96E6A
:10242C00000E06D00550020DC80EF324D96E000E16
:10243C00F420DA6EDECF06F0DDCF07F00650071081
:10244C00D8A405D0000E016E000E026E120020EE14
:10245C0002F00650D9260750DA2202C0DEFF03C074
:10246C00DDFF20EE01F00650D9260750DA2204C019
:10247C00DFFF06C0D9FF07C0DAFF400EDF1606C02B
:10248C00D9FF07C0DAFF000EDB8606C0D9FF07C0F4
:10249C00DAFF000EDB8E0150D8B407D00550020DC8
:1024AC00C20EF324D96E000E06D00550020DC80ED4
:1024BC00F324D96E000EF420DA6E040EDF1A06C077
:1024CC0001F007C002F01200C2C0D9FFC3C0DAFF8E
:1024DC000001000EDFBC010E026E040EC21B080EC2
:1024EC00E119D8A40CD0040132517F0B6E6E6E50E2
:1024FC00D8B402D0100E01D0040E0001E16F4804D4
:10250C00D8A43AD020EE02F0C251D926C351DA2217
:10251C00380EDE6E040EDD6EE6EC10F0020E49187D
:10252C00D8A40DD0C2C0D9FFC3C0DAFF040EDF6E31
:10253C00C2C0D9FFC3C0DAFF000EDB8E12000250FE
:10254C00D8A40DD0C2C0D9FFC3C0DAFF480EDF6ECD
:10255C00C2C0D9FFC3C0DAFF000EDB8E1200C2C0AE
:10256C00D9FFC3C0DAFF080EDF6EC2C0D9FFC3C0EB
:10257C00DAFF000EDB8E1200B1BFB19F000E486E69
:10258C001200000E0001E06FDC51DD11D8B40FD049
:10259C00DCC0D9FFDDC0DAFFDFAE03D0ED6BED2B75
:1025AC0002D00001ED6BED51EE6FEF6B04D0000E1D
:1025BC00EF6F000EEE6FEE51EF11D8A43BD020EE72
:1025CC0001F0DC51D926DD51DA22EC51DE5CD8B0B9
:1025DC0008D020EE01F0DC51D926DD51DA22DF5093
:1025EC00EC6F000EE06F13D0E051010D400EF324A0
:1025FC00D96E050EF420DA6EE051010DF350EA2588
:10260C00E16EF450EB21E26EDFCFE7FFE02BEC51F3
:10261C00E05DD8A0E9D7000EE36F400EE46F050E25
:10262C00E56F400EE66F020EAEEC11F0E3C0DCF08D
:10263C00E4C0DDF00001E0511200040130511F0B29
:10264C00E806D8A412003039E832030BE806D8A407
:10265C0012003451D8B437D03405D8A4120033D07A
:10266C004B0E0001BC6F000EBD6F000EC16F080E4B
:10267C00C06FBF81BF8F12004B0E0001BC6F000EEC
:10268C00BD6FBF8F120036C4B2F037C4B3F0530E17
:10269C000001AE6F000EAF6F000EB46F000EB56F81
:1026AC00B18F1200530E0001BC6F000EBD6F000EF7
:1026BC00C16F070EC06FC10EBF6F120032C43DF068
:1026CC000001BF8F120004013151000AD8B4C8D7E1
:1026DC00010AD8B4D1D7210AD8B4D5D7010AD8B4B5
:1026EC00E1D7030AD8A41200E9D7E81CD007041AD2
:1026FC000807201740063C1478055811B004740ED6
:10270C00E803900B2003AC085802C8059001E402C2
:10271C00C8007C016400F0004600BE003200960048
:10272C0028007D0023006E001E0069001900570070
:10273C001700500014004700130040001000370031
:10274C000F0036000E0031000D002F000B002C0086
:10275C000A002A000A0028000900260008002400AC
:10276C0007002300070022000600200006001E00C0
:10277C0006001C0006001C0005001B0005001900CB
:10278C00050018000500427574746F6E2070726538
:10279C00737365642E0D0A00000E0401386F000E71
:1027AC00396F38D00001BF8F4704D8A43ED0040144
:1027BC0038833BD00001BF8F38D00001BF8F04019C
:1027CC0034BF0AD034510F0B016E0150020DC80EEC
:1027DC00F324D96E000E09D034510F0B016E015049
:1027EC00020DC20EF324D96E000EF420DA6EDECF89
:1027FC0002F0DDCF03F002C0D9FF03C0DAFFDFAE79
:10280C0014D002C0D9FF03C0DAFFDFA40ED0010E32
:10281C00386F0BD030511F0B000AD8B4C3D7010A44
:10282C00D8B4C8D7030AD8B4C8D70001BFAF1200B8
:10283C00380EBC6F040EBD6FBF81020EC06F12004C
:10284C005B0EE8CF19F70C0EE8CF20F7000EE8CF9F
:10285C0021F75D0EE8CF2EF7000E0001E36F9DB15E
:10286C0002D0E39102D00001E3818CB102D0E3935A
:10287C0002D00001E3837BB102D0E39502D00001CA
:10288C00E3856AB102D0E39702D00001E38727EE1B
:10289C0022F0E3C0DFFF000EE56F000EE46FE551A0
:1028AC0017E112D0190EE425D96E070EE521DA6E68
:1028BC00800EE425E16E050EE521E26EDFCFE7FF29
:1028CC00E44BE52BE55104E1160EE45DD8A0EAD704
:1028DC00160EE8CF10F7000EE8CF11F7010EE8CF77
:1028EC0012F71200000E3F6E000E3E6E020E4818DC
:1028FC00D8A41FD020EE01F03750D9263850DA2258
:10290C00080EDF6E20EE02F03750D9263850DA224E
:10291C00380EDE6E040EDD6E37C0D9FF38C0DAFF1C
:10292C00480EDF6E37C0D9FF38C0DAFF000EDB8EE1
:10293C0012000001C0510401365D0001C1510401B7
:10294C003759D8B004D036C4C0F037C4C1F0E6EC67
:10295C0010F0000120EE02F0C251D926C351DA2248
:10296C00380EDE6E040EDD6EC2C0D9FFC3C0DAFFB6
:10297C00480EDF6EC2C0D9FFC3C0DAFF000EDB8E7B
:10298C0012000600FACF1FF0FBCF20F0E9CF21F0A8
:10299C00EACF22F0E1CF23F0E2CF24F0D9CF25F01B
:1029AC00DACF26F0F3CF27F0F4CF28F0F6CF29F0CA
:1029BC00F7CF2AF0F8CF2BF0F5CF2CF05EC02DF02E
:1029CC005FC02EF060C02FF061C030F09FEC08F0BB
:1029DC0030C061F02FC060F02EC05FF02DC05EF0F3
:1029EC002CC0F5FF2BC0F8FF2AC0F7FF29C0F6FF5B
:1029FC0028C0F4FF27C0F3FF26C0DAFF25C0D9FF9B
:102A0C0024C0E2FF23C0E1FF22C0EAFF21C0E9FF9E
:102A1C0020C0FBFF1FC0FAFF5E921100066E000E75
:102A2C00076E040E086E0150026E036AD8900236CF
:102A3C0003360650046E056AD89004360536D890D5
:102A4C00043605360250042603500522D89004366D
:102A5C000536D89004360536045007260550082252
:102A6C0007C0D9FF08C0DAFFDF9E0150D8A407D0F9
:102A7C000650020DC80EF324D96E000E06D0065077
:102A8C00020DC20EF324D96E000EF420DA6E07C0CC
:102A9C00DEFF08C0DDFF07C0D9FF08C0DAFFDF9CEE
:102AAC0020EE04F00750D9260850DA22DF8C1200F1
:102ABC00000EE8CF22F7000EE8CF25F7000EE8CF86
:102ACC0026F7000EE8CF27F7000EE8CF28F7000E08
:102ADC00E8CF29F7000EE8CF2AF7000EE8CF2BF746
:102AEC00000EE8CF2CF7000EE8CF24F727EE36F0D7
:102AFC000C0EDE18DE10D8B406D017D0020E16D08D
:102B0C0066EC04F018D027EE32F0DECFFCF0DDCF0F
:102B1C00FDF00001FD51000AD8A407D0FC51010AB8
:102B2C00D8B4ECD7020AD8B4EBD7050EE8CF1CF713
:102B3C00000EE8CF1DF726EC14F01200000E000179
:102B4C00EB6F000EEC6F000EED6F000EEE6FE751A9
:102B5C00E811E911EA11D8B42AD0010EEF6F06D0B2
:102B6C00D890E737E837E937EA37EF2BEAAFF8D7F1
:102B7C00D890EB37EC37ED37EE37E751E35DE851A2
:102B8C00E459E951E559EA51E659D8A009D0E75181
:102B9C00E35FE851E45BE951E55BEA51E65BEB810D
:102BAC00D890EA33E933E833E733EF2FE1D7EBC0C2
:102BBC00E3F0ECC0E4F0EDC0E5F0EEC0E6F012009E
:102BCC00000E496E000E426E000E3F6E000E3E6E01
:102BDC00000E446E000E486EC2C0D9FFC3C0DAFFAF
:102BEC007F0EDF16040E0001C21BC2C0D9FFC3C08A
:102BFC00DAFF7F0EDF16040EC21B37C0D9FF38C0B8
:102C0C00DAFF7F0EDF16000EBF6F000EC16F000ED5
:102C1C00C06F000EB16F000EB36F000EB26F2EECD2
:102C2C000FF0000E0E6E030E0D6E000E0F6E000EEA
:102C3C00106E000E126E000E116E9AEC17F0B5ECC1
:102C4C000EF01200D3EC17F02DD062C068F063C008
:102C5C0069F0010E6E6F120064C068F065C069F017
:102C6C00020E6E6F120066C068F067C069F0030E4A
:102C7C006E6F120060C068F061C069F0000E6E6F7C
:102C8C006F517011D8B41200FF0E6F256F6FFF0ECD
:102C9C007021706F1200000E706F000E6F6F000EBF
:102CAC006A6F120000016E51000AD8B4CED7010A27
:102CBC00D8B4D2D7030AD8B4D6D7010AD8B4DAD745
:102CCC00EAD708EC18F02DD073C079F074C07AF004
:102CDC00010E7F6F120075C079F076C07AF0020E8B
:102CEC007F6F120077C079F078C07AF0030E7F6F97
:102CFC00120071C079F072C07AF0000E7F6F8051B3
:102D0C008111D8B41200FF0E8025806FFF0E812137
:102D1C00816F1200000E816F000E806F000E7B6FB2
:102D2C00120000017F51000AD8B4CED7010AD8B4E2
:102D3C00D2D7030AD8B4D6D7010AD8B4DAD7EAD78F
:102D4C003DEC18F02DD084C08AF085C08BF0010EBC
:102D5C00906F120086C08AF087C08BF0020E906FC5
:102D6C00120088C08AF089C08BF0030E906F12009D
:102D7C0082C08AF083C08BF0000E906F915192113B
:102D8C00D8B41200FF0E9125916FFF0E9221926F15
:102D9C001200000E926F000E916F000E8C6F1200DD
:102DAC0000019051000AD8B4CED7010AD8B4D2D7BA
:102DBC00030AD8B4D6D7010AD8B4DAD7EAD772EC5A
:102DCC0018F02DD095C09BF096C09CF0010EA16F11
:102DDC00120097C09BF098C09CF0020EA16F1200DD
:102DEC0099C09BF09AC09CF0030EA16F120093C087
:102DFC009BF094C09CF0000EA16FA251A311D8B40B
:102E0C001200FF0EA225A26FFF0EA321A36F1200CA
:102E1C00000EA36F000EA26F000E9D6F120000013A
:102E2C00A151000AD8B4CED7010AD8B4D2D7030A1C
:102E3C00D8B4D6D7010AD8B4DAD7EAD7F2A40ED0D0
:102E4C00F294D59E000ED76E690ED66ED58E69ECB7
:102E5C0007F0000E0001BB6F010EBA6FC0EC19F049
:102E6C000001BA05BB11D8A41200000EBB6F000EF6
:102E7C00BA6F010EB625B66F000EB721B76FE80E0C
:102E8C00B65D030EB759D8A005D0000EB76F000E73
:102E9C00B66F0400E80E0001B85D030EB959D8A056
:102EAC0002D08D941200010EB825B86F000EB92116
:102EBC00B96F8D841200F60EF66E260EF76E000EAC
:102ECC00F86E01EE00F010EEAEF00900F5CFEEFF5B
:102EDC00E550E150FAE105EE80F011EEC5F0EE6A36
:102EEC00E550E150FCE1E250FAE102EE00F0400E58
:102EFC00EE6AE806FDE101EEAEF0400EEE6AE80681
:102F0C00FDE100EE60F0830EEE6AE806FDE100EEF6
:102F1C0031F02D0EEE6AE806FDE15E905E92000E39
:102F2C00F86E000139EF1AF00FD0A7EC18F0120070
:102F3C00A7EC18F01200A7EC18F0120062EC1AF0D3
:102F4C00120023EC13F012000DC013F00EC014F09D
:102F5C001450000AD8B404D07F0AD8A412001AD096
:102F6C001350010AD8B4EAD7030AD8B41200010AE4
:102F7C00D8B4E7D7060AD8B41200770AD8B412002E
:102F8C00010AD8B4D2D7070AD8B4D5D7010AD8A425
:102F9C001200CED71350FF0A120025D000016B058A
:102FAC00D8A403D08A888A8A12008B808B82120064
:102FBC006B05D8A403D08B808B8212008A888A8AF6
:102FCC0012006B05D8A403D08A988A9A12008B90B1
:102FDC008B9212006B05D8A403D08B908B921200AD
:102FEC008A988A9A120000016E51000AD8B4D6D77A
:102FFC00010AD8B4DDD7030AD8B4E3D7010AD8A4A0
:10300C001200E8D725D000017C05D8A403D08A8013
:10301C008A8212008A848A8612007C05D8A403D086
:10302C008A848A8612008A808A8212007C05D8A43F
:10303C0003D08A908A9212008A948A9612007C0598
:10304C00D8A403D08A948A9612008A908A9212008D
:10305C0000017F51000AD8B4D6D7010AD8B4DDD705
:10306C00030AD8B4E3D7010AD8A41200E8D725D0B4
:10307C0000018D05D8A403D08C888C8A12008C8C0E
:10308C008C8E12008D05D8A403D08C8C8C8E1200E3
:10309C008C888C8A12008D05D8A403D08C988C9ABD
:1030AC0012008C9C8C9E12008D05D8A403D08C9C95
:1030BC008C9E12008C988C9A120000019051000A80
:1030CC00D8B4D6D7010AD8B4DDD7030AD8B4E3D71D
:1030DC00010AD8A41200E8D725D000019E05D8A477
:1030EC0003D08C808C8212008C848C8612009E05FE
:1030FC00D8A403D08C848C8612008C808C82120015
:10310C009E05D8A403D08C908C9212008C948C9633
:10311C0012009E05D8A403D08C948C9612008C902F
:10312C008C9212000001A151000AD8B4D6D7010A22
:10313C00D8B4DDD7030AD8B4E3D7010AD8A4120057
:10314C00E8D76DA227D08D9012003B043C10D8B468
:10315C0014D0960E3B183C10D8B416D02D0E3B5CF8
:10316C00010E3C58D8A01CD0000E3C6E000E3B6EDD
:10317C0017D03B043C10D8A402D08B8411D0320E53
:10318C003B183C10D8A402D08B940AD0B70E3B5CF1
:10319C00030EE7D70001E151200AD8B4D6D7E9D7FE
:1031AC003B4A3C2A1200000E536E4B0E546E000E1E
:1031BC00556E000E566E000E576E000E586E080EB1
:1031CC00596E000E0001E06F1A0E096E010E85ECAF
:1031DC0019F01E0E096E020E85EC19F0000E016E30
:1031EC00400E026E050E036E400E046E020E0DECC8
:1031FC0012F001C0DCF002C0DDF0000E0001DA6F4D
:10320C00000EDB6F000EE26F1200020E4818D8A4FD
:10321C0003D02BEC0DF01200000E486E4450D8A4D5
:10322C001FD020EE01F03750D9263850DA22080E84
:10323C00DF6E20EE02F03750D9263850DA22300EED
:10324C00DE6E040EDD6E37C0D9FF38C0DAFF0C0E0F
:10325C00DF6E37C0D9FF38C0DAFF000EDB8E1200EC
:10326C00000E446E1200000E926EC16896909692FB
:10327C00969495909592959495969598959A959CEB
:10328C00959E93909392939493969398939A9490EB
:10329C0094928C908C928C948C968C988C9A8C9C0E
:1032AC008C9E8A908A928A948A968A988A9A8B9013
:1032BC008B92969296948D928D94120070A01DD044
:1032CC0039C0D9FF3AC0DAFF800EDE18D8A414D06A
:1032DC00C2C0D9FFC3C0DAFF840EDE18D8A40CD04C
:1032EC0039C0D9FF3AC0DAFF0C0EDF6E39C0D9FFF6
:1032FC003AC0DAFF000EDB8E7090689A12000C6EEA
:10330C0009A405D0000E016E0C5014EC15F009A2A6
:10331C0005D0010E016E0C5014EC15F00C50010D83
:10332C00700EF3240A6E0F0EF4200B6E0AC0D9FF38
:10333C000BC0DAFF09C0DFFF12000001E551E325E5
:10334C00E96FE651E421EA6FEA5104E1C80EE95D48
:10335C00D8A007D0380EE925E76FFF0EEA21E86FF9
:10336C0004D0E9C0E7F0EAC0E8F0E7C0E3F0E8C059
:10337C00E4F0120018C7E8FF010AD8A405D0000E2B
:10338C00E8CF18F710EC10F017C7E8FF010AD8A423
:10339C001200000EE8CF17F75EEC15F0000E0001DE
:1033AC00B96F000EB86F12000001E151D8A41200E1
:1033BC00000E6D6E000E696E160E6F6E9F0E6B6EAC
:1033CC007B0E696ED08EA28AA08AF28E01D06D8699
:1033DC006DA6FDD7010E0001E16F1200E3C0E9F00C
:1033EC00E4C0EAF009D0E9C0D9FFEAC0DAFFE5C0D1
:1033FC00DFFF0001E94BEA2B0001E707D8A0E80743
:10340C00E729F1E1E829D8B41200EDD7000E466E99
:10341C00000E0E6E740E0D6E000E0F6E000E106E02
:10342C00000E126E000E116E9AEC17F06D926994EC
:10343C0001D0689468A41200FCD701C007F002C048
:10344C0008F008D007C0D9FF08C0DAFF03C0DFFFBF
:10345C00074A082A0506D8A006060528F3E106281F
:10346C00D8B41200EFD7000E97EC1AF0A6EC1AF0B5
:10347C00CFEC09F0DAEC19F024EC17F0200E000177
:10348C00E16101D0F9D76DB2F7D735EC0EF0F4D776
:10349C00698468986D82010E466E000E0E6E750E74
:1034AC000D6E000E0F6E000E106E000E126E000EE2
:1034BC00116E9AEC17F01200D9EC18F0000E576E42
:1034CC00080E596E000E586E000E536E4B0E546E55
:1034DC00000E556E000E566E000E4A6E1200000E57
:1034EC00D56ED596D58CD59AD550F80B0209D56EDC
:1034FC00F29AF294000ED76E690ED66ED58E12002B
:10350C00A09A0001E251D8A40AD0E3C0D1F0E4C0E3
:10351C00D2F0E5C0DFF0010EDE6F010EE26FA08A83
:10352C0012000001E36F02D0949412000001E351E9
:10353C00000AD8B4F9D7010AD8B41200030A120051
:0E354C0039EC19F075EC1AF0B2EC0DF012002B
:020000040020DA
:08000000FFFFFFFFFFFFFFFF00
:020000040030CA
:0E000000240E3F0DFF8181FF0FC00FE00F4067
:00000001FF
