:0400000007EF13F003
:1008000000C60880084C08090809024300020100DC
:10081000C032090400000102020100052400100199
:100820000424020205240600010524010001070535
:10083000810308000209040100020A000000070504
:100840000202400000070582024000003403540009
:100850005200410049004E002000530049004D0065
:1008600055004C00410054004F005200200046004B
:1008700077005600650072002E0031002E00300017
:10088000340349004E005300590053002000440037
:10089000690067006900740061006C00200042007C
:1008A00061006E00670061006C006F0072006500FF
:1008B0002E0020001201000202000008D8040A00E5
:0B08C000000101020001040309040014
:1008CC00040EE8CF5CF4000EE8CF5DF479C4E8FFC9
:1008DC00010AD8A474EF04F076EF04F072EF05F07F
:1008EC007AC4E8FF010AD8B47EEF04F080EF04F07C
:1008FC0093EF04F07AC4E8FF020AD8B488EF04F04E
:10090C008AEF04F093EF04F0050EE8CF5CF4000ED0
:10091C00E8CF5DF4010EE8CF64F424EE7BF0030E17
:10092C00DB500CE1020EDB5009E12D0EDE5C010EFA
:10093C00DE58D8B0A4EF04F0A6EF04F0B3EF04F047
:10094C0024EE7BF0DE50DE10DE10DE10D8A4B1EF0A
:10095C0004F0B3EF04F0C7EF04F0050EE8CF5CF43D
:10096C00000EE8CF5DF4010EE8CF65F4000EE8CF81
:10097C0066F4000EE8CF67F4000EE8CF68F43FEFA2
:10098C0005F024EE7BF0030EDB500DE1020EDB5084
:10099C000AE1010EDB5007E10B0EDE5CD8B0D9EF9B
:1009AC0004F0DBEF04F0F3EF04F024EE7BF0FF0E29
:1009BC00DE24516EFF0EDE20526EFF0EDE20536ED3
:1009CC00FF0EDE20546E51C07BF452C07CF453C039
:1009DC007DF454C07EF43FEF05F07BC444F07CC43E
:1009EC0045F07DC446F07EC447F00A0E486E000EFA
:1009FC00496E000E4A6E000E4B6EB5EC12F044C000
:100A0C007BF445C07CF446C07DF447C07EF4080EF0
:100A1C007BC451F07CC452F07DC453F07EC454F0BE
:100A2C005124556E000E5220566E000E5320576EF8
:100A3C00000E5420586E55C07BF456C07CF457C041
:100A4C007DF458C07EF424EE7BF0030EDB500FE1F6
:100A5C00020EDB500CE1010EDB5009E1270EDE5CCF
:100A6C00D8A03BEF05F03DEF05F03FEF05F0B3EFFD
:100A7C0004F024EE7FF0030EDB500BE1020EDB5092
:100A8C0008E1DE28FF0EDE58D8B04FEF05F051EF2D
:100A9C0005F05EEF05F024EE7FF0DE50DE10DE1088
:100AAC00DE10D8A45CEF05F05EEF05F0C7EF05F0A3
:100ABC00050EE8CF5CF4000EE8CF5DF4010EE8CF34
:100ACC0069F4000EE8CF6AF4000EE8CF6BF4000E68
:100ADC00E8CF6CF4C7EF05F079C4E8FF020AD8A49C
:100AEC007AEF05F07CEF05F0BEEF05F07BC459F012
:100AFC007CC45AF07DC45BF07EC45CF0010E59647A
:100B0C008AEF05F08CEF05F094EF05F0050EE8CFB9
:100B1C005CF4000EE8CF5DF4010E596E010E5A64C0
:100B2C009AEF05F09CEF05F0A4EF05F0050EE8CF69
:100B3C005CF4000EE8CF5DF4010E5A6E24EE5CF00E
:100B4C00050EDE18DE10D8A4AEEF05F0B0EF05F000
:100B5C00C7EF05F0000E5B6E000E5C6E59C065F4BD
:100B6C005AC066F45BC067F45CC068F4C7EF05F06C
:100B7C00050EE8CF5CF4000EE8CF5DF4010EE8CF73
:100B8C0063F424EE5CF0040EDE18DE10D8A4D1EF72
:100B9C0005F0D3EF05F0A5EF06F079C4E8FF010AE4
:100BAC00D8A4DBEF05F0DDEF05F056EF06F083C4BB
:100BBC00E8FF010AD8A4E5EF05F0E7EF05F037EF01
:100BCC0006F004EF06F08CEC0CF0A5EF06F008EC48
:100BDC000CF0A5EF06F084EC0BF0A5EF06F000ECA2
:100BEC000BF0A5EF06F0050EE8CF5CF4000EE8CF95
:100BFC005DF4010EE8CF62F4A5EF06F024EE78F078
:100C0C00DF50516E526A5250000AD8B410EF06F001
:100C1C00F9EF05F05150010AD8B4E9EF05F0030AD9
:100C2C00D8B4EDEF05F0010AD8B4F1EF05F0070ADE
:100C3C00D8B4F5EF05F0F9EF05F0000E00019D6F4B
:100C4C00A5EF06F0000E00018C6FA5EF06F0000E6C
:100C5C0000017B6FA5EF06F0000E00016A6FA5EF97
:100C6C0006F024EE78F0DF50516E526A5250000AB2
:100C7C00D8B443EF06F0F9EF05F05150010AD8B49F
:100C8C0023EF06F0030AD8B428EF06F0010AD8B413
:100C9C002DEF06F0070AD8B432EF06F0F9EF05F0A5
:100CAC0079C4E8FF020AD8A45EEF06F060EF06F004
:100CBC00A5EF06F08EEF06F059B002D08C9001D063
:100CCC008C8059B002D08C9201D08C825AB002D058
:100CDC008C9401D08C845AB002D08C9601D08C8626
:100CEC0023EF06F059B002D08C9801D08C8859B003
:100CFC0002D08C9A01D08C8A5AB002D08C9C01D034
:100D0C008C8C5AB002D08C9E01D08C8E23EF06F0C6
:100D1C0024EE78F0DF50516E526A5250000AD8B46B
:100D2C009AEF06F0F9EF05F05150010AD8B462EFD2
:100D3C0006F0030AD8B478EF06F0F9EF05F01200CC
:100D4C0000019D05D8A4ADEF06F0AFEF06F0DAEF89
:100D5C0006F0898089829B519C11D8B4B8EF06F0BB
:100D6C00BAEF06F0C0EF06F0FF0E9B259B6FFF0E4F
:100D7C009C219C6F9B519C11D8A4C7EF06F0C9EF26
:100D8C0006F0EAEF06F0A251A311D8A4D0EF06F0BA
:100D9C00D2EF06F0D6EF06F0000E9D6FEAEF06F0EC
:100DAC005FEC11F0EAEF06F08990899279C4E8FFC4
:100DBC00020AD8B4E4EF06F0E6EF06F0EAEF06F02C
:100DCC008C908C928C948C9600018C05D8A4F1EFAD
:100DDC0006F0F3EF06F01EEF07F0898489868A513E
:100DEC008B11D8B4FCEF06F0FEEF06F004EF07F021
:100DFC00FF0E8A258A6FFF0E8B218B6F8A518B1108
:100E0C00D8A40BEF07F00DEF07F02EEF07F0915180
:100E1C009211D8A414EF07F016EF07F01AEF07F0B1
:100E2C00000E8C6F2EEF07F005EC11F02EEF07F093
:100E3C008994899679C4E8FF020AD8B428EF07F0A0
:100E4C002AEF07F02EEF07F08C988C9A8C9C8C9ED6
:100E5C0000017B05D8A435EF07F037EF07F062EF00
:100E6C0007F0898A898879517A11D8B440EF07F054
:100E7C0042EF07F048EF07F0FF0E7925796FFF0E70
:100E8C007A217A6F79517A11D8A44FEF07F051EF8C
:100E9C0007F068EF07F080518111D8A458EF07F0E4
:100EAC005AEF07F05EEF07F0000E7B6F68EF07F06C
:100EBC00ABEC10F068EF07F08998899A8A908A92C7
:100ECC008A948A9600016A05D8A46FEF07F071EF37
:100EDC0007F09CEF07F08D808D8268516911D8B4B2
:100EEC007AEF07F07CEF07F082EF07F0FF0E682532
:100EFC00686FFF0E6921696F68516911D8A489EF79
:100F0C0007F08BEF07F0A2EF07F06F517011D8A428
:100F1C0092EF07F094EF07F098EF07F0000E6A6F6E
:100F2C00A2EF07F051EC10F0A2EF07F08D908D922C
:100F3C008A988A9A8B908B921200A09A1B501C1044
:100F4C00D8B4ABEF07F0ADEF07F0C0EF07F01BC064
:100F5C00D9FF1CC0DAFFDFBEB6EF07F0BAEF07F01F
:100F6C004B6A4B2ABBEF07F04B6A4B504C6E4D6AE9
:100F7C00C4EF07F0000E4D6E000E4C6E4C504D1031
:100F8C00D8B4CBEF07F0CDEF07F0D0EF07F0A08A85
:100F9C0083EF08F0030E3718D8A4D7EF07F0D9EF7A
:100FAC0007F0DBEF07F0000E376E3750D8A4E1EFF7
:100FBC0007F0E3EF07F0E6EF07F0A08A83EF08F005
:100FCC00020E3718D8A4EDEF07F0EFEF07F002EFA1
:100FDC0008F0010E446E000E456E000E466E000EBB
:100FEC00476E020E8AEC0DF044C01BF045C01CF09D
:100FFC00030E376E82EF08F03704D8A408EF08F020
:10100C000AEF08F082EF08F0400E276410EF08F0AA
:10101C0012EF08F016EF08F0400E4F6E18EF08F0C4
:10102C0027C04FF04F50275C276E000E0001B46FA5
:10103C00020EB56F4FC04EF02650D8A428EF08F022
:10104C002AEF08F054EF08F03BEF08F0B7C0D9FFD7
:10105C00B8C0DAFFB4C0E1FFB5C0E2FFDFCFE7FFF5
:10106C00B44BB52BB74BB82B4E064E50D8A441EF12
:10107C0008F043EF08F02CEF08F05CEF08F0B7C075
:10108C00D9FFB8C0DAFFB4C0E1FFB5C0E2FFDFCFD3
:10109C00E7FFB44BB52BB74BB82B4E064E50D8A42C
:1010AC005AEF08F05CEF08F045EF08F02750D8A491
:1010BC0062EF08F064EF08F073EF08F0400E4F1881
:1010CC00D8A46BEF08F06DEF08F071EF08F0020E8A
:1010DC00376E73EF08F0030E376E010E446E000E80
:1010EC00456E020E466E4FC047F0020E8AEC0DF0B4
:1010FC0044C01BF045C01CF0A08A120044C04EF046
:10110C0045C04FF048504910D8A48FEF08F091EF2C
:10111C0008F093EF08F03EEF09F04EC0D9FF4FC036
:10112C00DAFF46C0DFFF48504E244A6E49504F202C
:10113C004B6EFF0E4A24D96EFF0E4B20DA6E46C062
:10114C00DFFF495007E1030E485CD8B0B0EF08F060
:10115C00B2EF08F0B4EF08F03EEF09F020EE01F02A
:10116C004E50D9264F50DA2246C0DFFF20EE02F057
:10117C004E50D9264F50DA2246C0DFFF48504E243D
:10118C004A6E49504F204B6EFE0E4A24D96EFF0E0C
:10119C004B20DA6E46C0DFFF48504E244A6E495051
:1011AC004F204B6EFD0E4A24D96EFF0E4B20DA6E8B
:1011BC0046C0DFFF495007E1070E485CD8B0E9EFA5
:1011CC0008F0EBEF08F0EDEF08F03EEF09F020EE41
:1011DC0003F04E50D9264F50DA2246C0DFFF48505C
:1011EC004E244A6E49504F204B6EFC0E4A24D96E49
:1011FC00FF0E4B20DA6E46C0DFFF495007E1090EA7
:10120C00485CD8B00CEF09F00EEF09F010EF09F0C4
:10121C003EEF09F04EC04AF04FC04BF04A1E4B1E39
:10122C004A4A4B2A030E4A144C6E4D6A4C504E26B9
:10123C004D504F224C50485E4D50495AFC0E4816AA
:10124C00FF0E491635EF09F04EC0D9FF4FC0DAFF3B
:10125C0046C0DFFF4806D8A049064E4A4F2A4850E0
:10126C004910D8A43CEF09F03EEF09F02AEF09F041
:10127C001200A09A000E6A6E000E686E000E706E60
:10128C00710E446E0F0E456E000E476E000E466ECC
:10129C00000E496E020E486E84EC08F0160E6F6E4E
:1012AC009F0E6B6E7B0E696E000E506E5050040DCF
:1012BC00BC0EF324D96E000EF420DA6EDE6ADE6A00
:1012CC00DE6ADD6A502A0B0E50646FEF09F071EF85
:1012DC0009F05CEF09F06D8C000E6E6E6D986D9CD4
:1012EC0081EF09F06896000E0C6E000E046E000E75
:1012FC00066E000E056E68B686EF09F088EF09F0F1
:10130C0078EF09F0010E2C6E010E2B6E000E2A6E7A
:10131C00000E296E000E316E000E506E5050020DF4
:10132C000F0EF324D96E000EF420DA6E000EDE6E72
:10133C00000EDD6E5050020DAA0EF324D96E000E75
:10134C00F420DA6E000EDE6E000EDD6E180E5024E8
:10135C00D96EDA6A000EDA22000EDF6E150E5024FA
:10136C00D96EDA6A000EDA22000EDF6E502A020EF7
:10137C005064C3EF09F0C5EF09F094EF09F0C40E07
:10138C000F6E000E106E160E706E000E0001BF6F09
:10139C00380EBE6F080EBD6F040EBC6FBC8F000EF6
:1013AC00436E000E356E1200000E00019D6F000E94
:1013BC008C6F000E7B6F000E6A6F000E9C6F000E20
:1013CC009B6F000E8B6F000E8A6F000E7A6F000EF3
:1013DC00796F000E696F000E686F000EE8CF58F43D
:1013EC00000EE8CF57F4000EE8CF52F4000EE8CF11
:1013FC0053F4000EE8CF54F4000EE8CF55F4000E71
:10140C00E8CF56F4000E456E000E446EC00E442418
:10141C00D96E020E4520DA6E000EDF6E444A452A64
:10142C00455009E1C80E445CD8A01FEF0AF021EF2B
:10143C000AF00CEF0AF0000E456E000E446E880E9A
:10144C004424D96E030E4520DA6E000EDF6E444A3A
:10145C00452A455009E1C80E445CD8A038EF0AF083
:10146C003AEF0AF025EF0AF0000E456E000E446EBE
:10147C006F0E4424D96E040E4520DA6E000EDF6E1A
:10148C00444A452A455009E1160E445CD8A051EF58
:10149C000AF053EF0AF03EEF0AF0000E456E000E14
:1014AC00446E590E4424D96E040E4520DA6E000E9B
:1014BC00DF6E444A452A455009E1160E445CD8A01B
:1014CC006AEF0AF06CEF0AF057EF0AF0120037508F
:1014DC00D8A473EF0AF075EF0AF0FDEF0AF0800E56
:1014EC004B6E020E4C6E400E4D6E03EC0EF0556EB4
:1014FC00000E566EBCEF0AF0800E5624D96EDA6AD6
:10150C00020EDA2214EE55F0E6CF51F0E5CF52F090
:10151C00880E5124E16E030E5220E26EDFCFE7FFFE
:10152C0024EE55F0DECF51F0DDCF52F0010E5126F6
:10153C00000E522251C055F452C056F424EE55F010
:10154C00010EDB5009E1C80EDE5CD8A0B0EF0AF04A
:10155C00B2EF0AF0B8EF0AF0000EE8CF55F4000E27
:10156C00E8CF56F4010EE8CF58F4562A5550565C85
:10157C00D8A0C3EF0AF0C5EF0AF082EF0AF052C40C
:10158C00E8FF010AD8A4CDEF0AF0CFEF0AF0FDEF87
:10159C000AF0000EE8CF52F4000E566EE5EF0AF09A
:1015AC00C00E5624D96EDA6A020EDA22400E562488
:1015BC00E16EE26A020EE222DFCFE7FF562A24EE4A
:1015CC0050F05650536E546ADE50535CDE505458F3
:1015DC00D8A0F3EF0AF0F5EF0AF0D6EF0AF0400EC0
:1015EC00446E020E456E50C446F016EC14F0A3EC9B
:1015FC0007F012007FC46FF080C470F07AC46BF0F7
:10160C0024EE7BF0DECF44F0DDCF45F0D8904436AD
:10161C004536D89044364536020E4424D96E010E18
:10162C004520DA6EDECF46F0DDCF47F024EE7BF0BE
:10163C00DECF48F0DDCF49F0D89048364936D89007
:10164C0048364936000E4824D96E010E4920DA6E10
:10165C00DECF4AF0DDCF4BF046504A240001606FDC
:10166C0047504B20616F24EE7BF0DECF44F0DDCF92
:10167C0045F0D89044364536D89044364536000E61
:10168C004424D96E010E4520DA6EDECF62F0DDCF38
:10169C0063F024EE7BF0DECF44F0DDCF45F0D89044
:1016AC0044364536D89044364536020E4424D96E1D
:1016BC00010E4520DA6EDECF64F0DDCF65F024EE4E
:1016CC007BF0DECF44F0DDCF45F0D8904436453684
:1016DC00D89044364536000E4424D96E010E452070
:1016EC00DA6EDECF66F0DDCF67F060C068F061C007
:1016FC0069F0000E6E6F010E6A6F12007FC480F0ED
:10170C0080C481F07AC47CF024EE7BF0DECF44F010
:10171C00DDCF45F0D89044364536D8904436453622
:10172C00020E4424D96E010E4520DA6EDECF46F04F
:10173C00DDCF47F024EE7BF0DECF48F0DDCF49F073
:10174C00D89048364936D89048364936000E482449
:10175C00D96E010E4920DA6EDECF4AF0DDCF4BF0A8
:10176C0046504A240001716F47504B20726F24EE93
:10177C007BF0DECF44F0DDCF45F0D89044364536D3
:10178C00D89044364536000E4424D96E010E4520BF
:10179C00DA6EDECF73F0DDCF74F024EE7BF0DECFAB
:1017AC0044F0DDCF45F0D89044364536D8904436D9
:1017BC004536020E4424D96E010E4520DA6EDECF7A
:1017CC0075F0DDCF76F024EE7BF0DECF44F0DDCF8C
:1017DC0045F0D89044364536D89044364536000E00
:1017EC004424D96E010E4520DA6EDECF77F0DDCFC2
:1017FC0078F071C079F072C07AF0000E7F6F010E34
:10180C007B6F12007FC491F080C492F07AC48DF08B
:10181C0024EE7BF0DECF44F0DDCF45F0D89044369B
:10182C004536D89044364536020E4424D96E010E06
:10183C004520DA6EDECF46F0DDCF47F024EE7BF0AC
:10184C00DECF48F0DDCF49F0D89048364936D890F5
:10185C0048364936000E4824D96E010E4920DA6EFE
:10186C00DECF4AF0DDCF4BF046504A240001826FA8
:10187C0047504B20836F24EE7BF0DECF44F0DDCF5E
:10188C0045F0D89044364536D89044364536000E4F
:10189C004424D96E010E4520DA6EDECF84F0DDCF04
:1018AC0085F024EE7BF0DECF44F0DDCF45F0D89010
:1018BC0044364536D89044364536020E4424D96E0B
:1018CC00010E4520DA6EDECF86F0DDCF87F024EEF8
:1018DC007BF0DECF44F0DDCF45F0D8904436453672
:1018EC00D89044364536000E4424D96E010E45205E
:1018FC00DA6EDECF88F0DDCF89F082C08AF083C04B
:10190C008BF0000E906F010E8C6F12007FC4A2F052
:10191C0080C4A3F07AC49EF024EE7BF0DECF44F0BA
:10192C00DDCF45F0D89044364536D8904436453610
:10193C00020E4424D96E010E4520DA6EDECF46F03D
:10194C00DDCF47F024EE7BF0DECF48F0DDCF49F061
:10195C00D89048364936D89048364936000E482437
:10196C00D96E010E4920DA6EDECF4AF0DDCF4BF096
:10197C0046504A240001936F47504B20946F24EE3D
:10198C007BF0DECF44F0DDCF45F0D89044364536C1
:10199C00D89044364536000E4424D96E010E4520AD
:1019AC00DA6EDECF95F0DDCF96F024EE7BF0DECF55
:1019BC0044F0DDCF45F0D89044364536D8904436C7
:1019CC004536020E4424D96E010E4520DA6EDECF68
:1019DC0097F0DDCF98F024EE7BF0DECF44F0DDCF36
:1019EC0045F0D89044364536D89044364536000EEE
:1019FC004424D96E010E4520DA6EDECF99F0DDCF8E
:101A0C009AF093C09BF094C09CF0000EA16F010E55
:101A1C009D6F1200000E526E000E516E880E5124F6
:101A2C00D96E030E5220DA6E5B0EDE18D8A421EFAD
:101A3C000DF023EF0DF07CEF0DF051C044F052C0CF
:101A4C0045F0000E476E150E466ED4EC13F044C0F4
:101A5C004DF045C04EF0880E4D24D96E030E4E202D
:101A6C00DA6E5D0EDE18D8A43EEF0DF040EF0DF0EF
:101A7C007CEF0DF0000E506E000E4F6E51C044F016
:101A8C0052C045F04FC046F050C047F0D4EC13F0B4
:101A9C00880E4424D96E030E4520DA6E6F0E4F2447
:101AAC00E16E040E5020E26EDFCFE7FF4F4A502A62
:101ABC00505009E1160E4F5CD8A067EF0DF069EF9E
:101ACC000DF044EF0DF0010EE8CF57F4880E5124C1
:101ADC00D96E030E5220DA6E000EDF6E880E4D2486
:101AEC00D96E030E4E20DA6E000EDF6E514A522A6A
:101AFC00525009E1C80E515CD8A087EF0DF089EF68
:101B0C000DF014EF0DF01200486E4450D8B491EF64
:101B1C000DF093EF0DF0A1EF0DF04850020D0F0EEC
:101B2C00F324D96E000EF420DA6EDECF49F0DDCF4F
:101B3C004AF0ADEF0DF04850020DAA0EF324D96E09
:101B4C00000EF420DA6EDECF49F0DDCF4AF04950BA
:101B5C004A10D8A4B4EF0DF0B6EF0DF0BCEF0DF0B9
:101B6C00000E446E000E456E02EF0EF020EE02F0F9
:101B7C004950D9264A50DA2245C0DEFF46C0DDFF67
:101B8C0020EE01F04950D9264A50DA2247C0DFFF37
:101B9C0049C0D9FF4AC0DAFF400EDF1649C0D9FF51
:101BAC004AC0DAFF000EDB8649C0D9FF4AC0DAFF13
:101BBC00000EDB8E4450D8B4E6EF0DF0E8EF0DF0DC
:101BCC00F4EF0DF04850020D0F0EF324D96E000EF9
:101BDC00F420DA6E040EDF1AFEEF0DF04850020D01
:101BEC00AA0EF324D96E000EF420DA6E040EDF1A5E
:101BFC0049C044F04AC045F01200000E286E1D503A
:101C0C001E10D8B40CEF0EF00EEF0EF021EF0EF00C
:101C1C001DC0D9FF1EC0DAFFDFBE17EF0EF01BEFA1
:101C2C000EF04E6A4E2A1CEF0EF04E6A4E504F6E5E
:101C3C00506A25EF0EF0000E506E000E4F6E4F5096
:101C4C005010D8A42CEF0EF02EEF0EF070EF0EF01B
:101C5C0020EE01F01D50D9261E50DA224D50DE5CCC
:101C6C00D8B03BEF0EF03DEF0EF045EF0EF020EE4E
:101C7C0001F01D50D9261E50DA22DF504D6E000E99
:101C8C00286E58EF0EF0B80E2824D96EDA6A010EC1
:101C9C00DA2228504B24E16E000E4C20E26EDFCF8E
:101CAC00E7FF282A4D50285CD8A05FEF0EF061EFBB
:101CBC000EF049EF0EF0000E446EB80E456E010E9C
:101CCC00466E400E476E020E8AEC0DF044C01DF0BD
:101CDC0045C01EF028501200B4EF0EF06B05D8A4CE
:101CEC007AEF0EF07CEF0EF080EF0EF08A888A8A85
:101CFC00D2EF0EF08B808B82D2EF0EF06B05D8A456
:101D0C008AEF0EF08CEF0EF090EF0EF08B808B8242
:101D1C00D2EF0EF08A888A8AD2EF0EF06B05D8A427
:101D2C009AEF0EF09CEF0EF0A0EF0EF08A988A9AC4
:101D3C00D2EF0EF08B908B92D2EF0EF06B05D8A4F5
:101D4C00AAEF0EF0ACEF0EF0B0EF0EF08B908B9282
:101D5C00D2EF0EF08A988A9AD2EF0EF000016E51F3
:101D6C00446E456A4550000AD8B4BFEF0EF0D2EF6E
:101D7C000EF04450000AD8B474EF0EF0010AD8B437
:101D8C0084EF0EF0030AD8B494EF0EF0010AD8B425
:101D9C00A4EF0EF0D2EF0EF0120015EF0FF07C0551
:101DAC00D8A4DBEF0EF0DDEF0EF0E1EF0EF08A8041
:101DBC008A8233EF0FF08A848A8633EF0FF07C052A
:101DCC00D8A4EBEF0EF0EDEF0EF0F1EF0EF08A84ED
:101DDC008A8633EF0FF08A808A8233EF0FF07C050E
:101DEC00D8A4FBEF0EF0FDEF0EF001EF0FF08A9090
:101DFC008A9233EF0FF08A948A9633EF0FF07C05BA
:101E0C00D8A40BEF0FF00DEF0FF011EF0FF08A9439
:101E1C008A9633EF0FF08A908A9233EF0FF000011D
:101E2C007F51446E456A4550000AD8B420EF0FF03C
:101E3C0033EF0FF04450000AD8B4D5EF0EF0010A7E
:101E4C00D8B4E5EF0EF0030AD8B4F5EF0EF0010AA2
:101E5C00D8B405EF0FF033EF0FF0120076EF0FF060
:101E6C008D05D8A43CEF0FF03EEF0FF042EF0FF0D2
:101E7C008C888C8A94EF0FF08C8C8C8E94EF0FF0F6
:101E8C008D05D8A44CEF0FF04EEF0FF052EF0FF082
:101E9C008C8C8C8E94EF0FF08C888C8A94EF0FF0D6
:101EAC008D05D8A45CEF0FF05EEF0FF062EF0FF032
:101EBC008C988C9A94EF0FF08C9C8C9E94EF0FF076
:101ECC008D05D8A46CEF0FF06EEF0FF072EF0FF0E2
:101EDC008C9C8C9E94EF0FF08C988C9A94EF0FF056
:101EEC0000019051446E456A4550000AD8B481EF08
:101EFC000FF094EF0FF04450000AD8B436EF0FF007
:101F0C00010AD8B446EF0FF0030AD8B456EF0FF01D
:101F1C00010AD8B466EF0FF094EF0FF01200D7EF70
:101F2C000FF09E05D8A49DEF0FF09FEF0FF0A3EFDD
:101F3C000FF08C808C82F5EF0FF08C848C86F5EF93
:101F4C000FF09E05D8A4ADEF0FF0AFEF0FF0B3EF8D
:101F5C000FF08C848C86F5EF0FF08C808C82F5EF73
:101F6C000FF09E05D8A4BDEF0FF0BFEF0FF0C3EF3D
:101F7C000FF08C908C92F5EF0FF08C948C96F5EF13
:101F8C000FF09E05D8A4CDEF0FF0CFEF0FF0D3EFED
:101F9C000FF08C948C96F5EF0FF08C908C92F5EFF3
:101FAC000FF00001A151446E456A4550000AD8B4A7
:101FBC00E2EF0FF0F5EF0FF04450000AD8B497EFB2
:101FCC000FF0010AD8B4A7EF0FF0030AD8B4B7EF9B
:101FDC000FF0010AD8B4C7EF0FF0F5EF0FF01200B5
:101FEC00000EE8CF62F4000EE8CF65F4000EE8CFE7
:101FFC0066F4000EE8CF67F4000EE8CF68F4000E2C
:10200C00E8CF69F4000EE8CF6AF4000EE8CF6BF469
:10201C00000EE8CF6CF4000EE8CF64F424EE76F0FA
:10202C000C0EDE18DE10D8A41EEF10F020EF10F00E
:10203C002EEF10F036EF10F0020EE8CF5CF4000E2D
:10204C00E8CF5DF44EEF10F066EC04F04EEF10F0BC
:10205C00050EE8CF5CF4000EE8CF5DF44EEF10F007
:10206C0024EE72F0DECF5DF0DDCF5EF05E50000A44
:10207C00D8B443EF10F02EEF10F05D50010AD8B435
:10208C0022EF10F0020AD8B42AEF10F02EEF10F065
:10209C0010EC12F0120072EC0EF08CEF10F062C02B
:1020AC0068F063C069F0010E6E6FAAEF10F064C0A7
:1020BC0068F065C069F0020E6E6FAAEF10F066C092
:1020CC0068F067C069F0030E6E6FAAEF10F060C085
:1020DC0068F061C069F0000E6E6F6F517011D8B46A
:1020EC007AEF10F07CEF10F0AAEF10F0FF0E6F25D6
:1020FC006F6FFF0E7021706FAAEF10F0000E706FF3
:10210C00000E6F6F000E6A6FAAEF10F000016E5197
:10211C00466E476A4750000AD8B497EF10F084EF28
:10212C0010F04650000AD8B455EF10F0010AD8B49C
:10213C005DEF10F0030AD8B465EF10F0010AD8B4C3
:10214C006DEF10F084EF10F01200D3EC0EF0E6EF10
:10215C0010F073C079F074C07AF0010E7F6F04EF49
:10216C0011F075C079F076C07AF0020E7F6F04EF33
:10217C0011F077C079F078C07AF0030E7F6F04EF1E
:10218C0011F071C079F072C07AF0000E7F6F80513F
:10219C008111D8B4D4EF10F0D6EF10F004EF11F099
:1021AC00FF0E8025806FFF0E8121816F04EF11F0EF
:1021BC00000E816F000E806F000E7B6F04EF11F02C
:1021CC0000017F51466E476A4750000AD8B4F1EFC0
:1021DC0010F0DEEF10F04650000AD8B4AFEF10F05C
:1021EC00010AD8B4B7EF10F0030AD8B4BFEF10F05F
:1021FC00010AD8B4C7EF10F0DEEF10F0120034EC87
:10220C000FF040EF11F084C08AF085C08BF0010E06
:10221C00906F5EEF11F086C08AF087C08BF0020ED3
:10222C00906F5EEF11F088C08AF089C08BF0030EBE
:10223C00906F5EEF11F082C08AF083C08BF0000EBD
:10224C00906F91519211D8B42EEF11F030EF11F034
:10225C005EEF11F0FF0E9125916FFF0E9221926FA0
:10226C005EEF11F0000E926F000E916F000E8C6FEE
:10227C005EEF11F000019051466E476A4750000A1C
:10228C00D8B44BEF11F038EF11F04650000AD8B427
:10229C0009EF11F0010AD8B411EF11F0030AD8B408
:1022AC0019EF11F0010AD8B421EF11F038EF11F049
:1022BC00120095EC0FF09AEF11F095C09BF096C0C0
:1022CC009CF0010EA16FB8EF11F097C09BF098C075
:1022DC009CF0020EA16FB8EF11F099C09BF09AC060
:1022EC009CF0030EA16FB8EF11F093C09BF094C05B
:1022FC009CF0000EA16FA251A311D8B488EF11F07D
:10230C008AEF11F0B8EF11F0FF0EA225A26FFF0EAD
:10231C00A321A36FB8EF11F0000EA36F000EA26FF4
:10232C00000E9D6FB8EF11F00001A151466E476A87
:10233C004750000AD8B4A5EF11F092EF11F04650B7
:10234C00000AD8B463EF11F0010AD8B46BEF11F0A6
:10235C00030AD8B473EF11F0010AD8B47BEF11F073
:10236C0092EF11F01200E81CD007041A080720178E
:10237C0040063C1478055811B004740EE803900B19
:10238C002003AC085802C8059001E402C8007C0187
:10239C006400F0004600BE003200960028007D006C
:1023AC0023006E001E006900190057001700500032
:1023BC001400470013004000100037000F003600D7
:1023CC000E0031000D002F000B002C000A002A001B
:1023DC000A0028000900260008002400070023003A
:1023EC00070022000600200006001E0006001C004C
:1023FC0006001C0005001B00050019000500180054
:10240C000500427574746F6E207072657373656429
:10241C002E0D0A005B0EE8CF59F40C0EE8CF60F4D9
:10242C00000EE8CF61F45D0EE8CF6EF4000E446E42
:10243C0000019DB102D0449001D0448000018CB1C8
:10244C0002D0449201D0448200017BB102D044946A
:10245C0001D0448400016AB102D0449601D0448674
:10246C0024EE62F044C0DFFF000E466E000E456E97
:10247C00590E4524D96E040E4620DA6EC00E452442
:10248C00E16E020E4620E26EDFCFE7FF454A462A98
:10249C00465009E1160E455CD8A057EF12F059EFE3
:1024AC0012F03EEF12F0160EE8CF50F4000EE8CF0B
:1024BC0051F4010EE8CF52F41200F2A468EF12F0BE
:1024CC006AEF12F078EF12F0F294D59E000ED76EF0
:1024DC00690ED66ED58EA6EC06F0000E0001A96F23
:1024EC00010EA86F8DEC13F00001A805A911D8A45A
:1024FC0082EF12F084EF12F0B4EF12F0000EA96F1D
:10250C00000EA86F010EA425A46F000EA521A56FC7
:10251C00E80EA45D030EA559D8A097EF12F099EF21
:10252C0012F09EEF12F0000EA56F000EA46F0400C7
:10253C00E80E0001A65D030EA759D8A0A8EF12F073
:10254C00AAEF12F0ADEF12F08D94B4EF12F0010E71
:10255C00A625A66F000EA721A76F8D841200000E72
:10256C004C6E000E4D6E000E4E6E000E4F6E4850AF
:10257C0049104A104B10D8B4C6EF12F0C8EF12F045
:10258C00FEEF12F0010E506ED2EF12F0D8904836DA
:10259C0049364A364B36502A4BAED7EF12F0D9EFAC
:1025AC0012F0CCEF12F0D8904C364D364E364F36EA
:1025BC004850445C495045584A5046584B5047582F
:1025CC00D8A0EBEF12F0EDEF12F0F6EF12F048504E
:1025DC00445E4950455A4A50465A4B50475A4C80D3
:1025EC00D8904B324A3249324832502ED9EF12F041
:1025FC004CC044F04DC045F04EC046F04FC047F0C3
:10260C001200720EF66E230EF76E000EF86E01EECF
:10261C0000F010EEAEF00900F5CFEEFFE550E15002
:10262C00FAE102EEC0F011EEC5F0EE6AE550E150B1
:10263C00FCE1E250FAE102EE00F0C00EEE6AE806B0
:10264C00FDE101EEAEF0520EEE6AE806FDE100EEA1
:10265C0060F09B0EEE6AE806FDE100EE01F0430E21
:10266C00EE6AE806FDE1000EF86E000169EF13F06A
:10267C00000E926EC1689690969296949590959253
:10268C00959495969598959A959C959E93909392E2
:10269C00939493969398939A949094928C908C9202
:1026AC008C948C968C988C9A8C9C8C9E8A908A920A
:1026BC008A948A968A988A9A8B908B929692969400
:1026CC008D928D941200000EF6EC13F03CEC14F08D
:1026DC003FEC09F0B1EC13F063EC12F0200E356016
:1026EC007AEF13F07CEF13F07EEF13F072EF13F030
:1026FC006DA283EF13F085EF13F087EF13F072EFF9
:10270C0013F06DEC0AF072EF13F000EF00F058C408
:10271C00E8FF010AD8A495EF13F097EF13F09CEFA4
:10272C0013F0000EE8CF58F410EC0DF057C4E8FF8E
:10273C00010AD8A4A4EF13F0A6EF13F0B0EF13F036
:10274C00000EE8CF57F4F6EC0FF0000E0001A76F67
:10275C00000EA66F12003550D8A4B7EF13F0B9EFE6
:10276C0013F0D3EF13F0000E6D6E000E696E160EA3
:10277C006F6E9F0E6B6E7B0E696ED08EA28AA08AD6
:10278C00F28ECAEF13F06D866DA6CFEF13F0D1EF7A
:10279C0013F0C9EF13F0010E356E120046504424AD
:1027AC004A6E475045204B6E4B5009E1C80E4A5CAF
:1027BC00D8A0E3EF13F0E5EF13F0EDEF13F0380EC4
:1027CC004A24486EFF0E4B20496EF1EF13F04AC0BD
:1027DC0048F04BC049F048C044F049C045F01200E5
:1027EC00466EFCEF13F0949415EF14F04650446EC3
:1027FC00456A4550000AD8B406EF14F015EF14F0F2
:10280C004450000AD8B4F9EF13F0010AD8B415EF0C
:10281C0014F0030AD8B415EF14F015EF14F01200ED
:10282C00A09A3750D8A41DEF14F01FEF14F029EF25
:10283C0014F044C0B7F045C0B8F046C027F0010E04
:10284C00266E010E376EA08A1200000ED56ED5963C
:10285C00D58CD59AD550F80B0209D56EF29AF29414
:10286C00000ED76E690ED66ED58E12003EEC13F0AC
:0A287C002BEC14F0DAEC09F0120066
:020000040020DA
:08000000FFFFFFFFFFFFFFFF00
:020000040030CA
:0E000000240E3F0DFF8181FF0FC00FE00F4067
:00000001FF
